{"abi":[{"inputs":[{"internalType":"string","name":"_tokenName","type":"string"},{"internalType":"string","name":"_tokenSymbol","type":"string"},{"internalType":"uint256","name":"_tokenSupply","type":"uint256"},{"internalType":"uint256","name":"_tokensForSale","type":"uint256"},{"internalType":"uint256","name":"_tokenPrice","type":"uint256"},{"internalType":"uint256","name":"_minPurchaseLimit","type":"uint256"},{"internalType":"uint256","name":"_maxPurchaseLimit","type":"uint256"}],"stateMutability":"nonpayable","type":"constructor"},{"anonymous":false,"inputs":[{"indexed":false,"internalType":"address","name":"","type":"address"},{"indexed":false,"internalType":"uint256","name":"","type":"uint256"}],"name":"Purchased","type":"event"},{"inputs":[],"name":"buyToken","outputs":[],"stateMutability":"payable","type":"function"},{"inputs":[],"name":"checkWhitelistedAccount","outputs":[{"internalType":"bool","name":"","type":"bool"}],"stateMutability":"view","type":"function"},{"inputs":[],"name":"getTokenPurchasedCount","outputs":[{"internalType":"uint256","name":"","type":"uint256"}],"stateMutability":"view","type":"function"},{"inputs":[],"name":"getUnsoldTokenCount","outputs":[{"internalType":"uint256","name":"","type":"uint256"}],"stateMutability":"view","type":"function"},{"inputs":[],"name":"tokenName","outputs":[{"internalType":"string","name":"","type":"string"}],"stateMutability":"view","type":"function"},{"inputs":[],"name":"tokenSymbol","outputs":[{"internalType":"string","name":"","type":"string"}],"stateMutability":"view","type":"function"},{"inputs":[],"name":"totalEthContributed","outputs":[{"internalType":"uint256","name":"","type":"uint256"}],"stateMutability":"view","type":"function"},{"inputs":[{"internalType":"address","name":"_adr","type":"address"}],"name":"whitelistUser","outputs":[],"stateMutability":"nonpayable","type":"function"}],"devdoc":{"kind":"dev","methods":{},"version":1},"evm":{"assembly":"    /* \"contractFile\":92:2968  contract MyICO {... */\n  mstore(0x40, 0x0120)\n    /* \"contractFile\":134:135  0 */\n  0x00\n    /* \"contractFile\":114:135  uint unsoldTokens = 0 */\n  dup1\n  sstore\n    /* \"contractFile\":480:1007  constructor (string memory _tokenName, string memory _tokenSymbol, uint _tokenSupply, uint _tokensForSale, uint _tokenPrice, uint _minPurchaseLimit, uint _maxPurchaseLimit) {... */\n  callvalue\n  dup1\n  iszero\n  tag_1\n  jumpi\n  0x00\n  dup1\n  revert\ntag_1:\n  pop\n  mload(0x40)\n  sub(codesize, bytecodeSize)\n  dup1\n  bytecodeSize\n  dup4\n  codecopy\n  dup2\n  dup2\n  add\n  0x40\n  mstore\n  dup2\n  add\n  swap1\n  tag_2\n  swap2\n  swap1\n  tag_3\n  jump\t// in\ntag_2:\n    /* \"contractFile\":680:690  msg.sender */\n  caller\n    /* \"contractFile\":663:669  wallet */\n  0x03\n  0x00\n    /* \"contractFile\":663:691  wallet = payable(msg.sender) */\n  0x0100\n  exp\n  dup2\n  sload\n  dup2\n  0xffffffffffffffffffffffffffffffffffffffff\n  mul\n  not\n  and\n  swap1\n  dup4\n  0xffffffffffffffffffffffffffffffffffffffff\n  and\n  mul\n  or\n  swap1\n  sstore\n  pop\n    /* \"contractFile\":713:723  _tokenName */\n  dup7\n    /* \"contractFile\":701:710  tokenName */\n  0x01\n    /* \"contractFile\":701:723  tokenName = _tokenName */\n  swap1\n  dup1\n  mload\n  swap1\n  0x20\n  add\n  swap1\n  tag_6\n  swap3\n  swap2\n  swap1\n  tag_7\n  jump\t// in\ntag_6:\n  pop\n    /* \"contractFile\":747:759  _tokenSymbol */\n  dup6\n    /* \"contractFile\":733:744  tokenSymbol */\n  0x02\n    /* \"contractFile\":733:759  tokenSymbol = _tokenSymbol */\n  swap1\n  dup1\n  mload\n  swap1\n  0x20\n  add\n  swap1\n  tag_8\n  swap3\n  swap2\n  swap1\n  tag_7\n  jump\t// in\ntag_8:\n  pop\n    /* \"contractFile\":783:795  _tokenSupply */\n  dup5\n    /* \"contractFile\":769:795  tokenSupply = _tokenSupply */\n  0x80\n  dup2\n  dup2\n  mstore\n  pop\n  pop\n    /* \"contractFile\":821:835  _tokensForSale */\n  dup4\n    /* \"contractFile\":805:835  tokensForSale = _tokensForSale */\n  0xc0\n  dup2\n  dup2\n  mstore\n  pop\n  pop\n    /* \"contractFile\":860:874  _tokensForSale */\n  dup4\n    /* \"contractFile\":845:857  unsoldTokens */\n  0x00\n    /* \"contractFile\":845:874  unsoldTokens = _tokensForSale */\n  dup2\n  swap1\n  sstore\n  pop\n    /* \"contractFile\":897:908  _tokenPrice */\n  dup3\n    /* \"contractFile\":884:908  ethToToken = _tokenPrice */\n  0xa0\n  dup2\n  dup2\n  mstore\n  pop\n  pop\n    /* \"contractFile\":937:954  _minPurchaseLimit */\n  dup2\n    /* \"contractFile\":918:954  minPurchaseLimit = _minPurchaseLimit */\n  0xe0\n  dup2\n  dup2\n  mstore\n  pop\n  pop\n    /* \"contractFile\":983:1000  _maxPurchaseLimit */\n  dup1\n    /* \"contractFile\":964:1000  maxPurchaseLimit = _maxPurchaseLimit */\n  0x0100\n  dup2\n  dup2\n  mstore\n  pop\n  pop\n    /* \"contractFile\":480:1007  constructor (string memory _tokenName, string memory _tokenSymbol, uint _tokenSupply, uint _tokensForSale, uint _tokenPrice, uint _minPurchaseLimit, uint _maxPurchaseLimit) {... */\n  pop\n  pop\n  pop\n  pop\n  pop\n  pop\n  pop\n    /* \"contractFile\":92:2968  contract MyICO {... */\n  jump(tag_9)\ntag_7:\n  dup3\n  dup1\n  sload\n  tag_10\n  swap1\n  tag_11\n  jump\t// in\ntag_10:\n  swap1\n  0x00\n  mstore\n  keccak256(0x00, 0x20)\n  swap1\n  0x1f\n  add\n  0x20\n  swap1\n  div\n  dup2\n  add\n  swap3\n  dup3\n  tag_13\n  jumpi\n  0x00\n  dup6\n  sstore\n  jump(tag_12)\ntag_13:\n  dup3\n  0x1f\n  lt\n  tag_14\n  jumpi\n  dup1\n  mload\n  not(0xff)\n  and\n  dup4\n  dup1\n  add\n  or\n  dup6\n  sstore\n  jump(tag_12)\ntag_14:\n  dup3\n  dup1\n  add\n  0x01\n  add\n  dup6\n  sstore\n  dup3\n  iszero\n  tag_12\n  jumpi\n  swap2\n  dup3\n  add\ntag_15:\n  dup3\n  dup2\n  gt\n  iszero\n  tag_16\n  jumpi\n  dup3\n  mload\n  dup3\n  sstore\n  swap2\n  0x20\n  add\n  swap2\n  swap1\n  0x01\n  add\n  swap1\n  jump(tag_15)\ntag_16:\ntag_12:\n  pop\n  swap1\n  pop\n  tag_17\n  swap2\n  swap1\n  tag_18\n  jump\t// in\ntag_17:\n  pop\n  swap1\n  jump\t// out\ntag_18:\ntag_19:\n  dup1\n  dup3\n  gt\n  iszero\n  tag_20\n  jumpi\n  0x00\n  dup2\n  0x00\n  swap1\n  sstore\n  pop\n  0x01\n  add\n  jump(tag_19)\ntag_20:\n  pop\n  swap1\n  jump\t// out\n    /* \"#utility.yul\":7:82   */\ntag_21:\n    /* \"#utility.yul\":40:46   */\n  0x00\n    /* \"#utility.yul\":73:75   */\n  0x40\n    /* \"#utility.yul\":67:76   */\n  mload\n    /* \"#utility.yul\":57:76   */\n  swap1\n  pop\n    /* \"#utility.yul\":7:82   */\n  swap1\n  jump\t// out\n    /* \"#utility.yul\":88:205   */\ntag_22:\n    /* \"#utility.yul\":197:198   */\n  0x00\n    /* \"#utility.yul\":194:195   */\n  dup1\n    /* \"#utility.yul\":187:199   */\n  revert\n    /* \"#utility.yul\":211:328   */\ntag_23:\n    /* \"#utility.yul\":320:321   */\n  0x00\n    /* \"#utility.yul\":317:318   */\n  dup1\n    /* \"#utility.yul\":310:322   */\n  revert\n    /* \"#utility.yul\":334:451   */\ntag_24:\n    /* \"#utility.yul\":443:444   */\n  0x00\n    /* \"#utility.yul\":440:441   */\n  dup1\n    /* \"#utility.yul\":433:445   */\n  revert\n    /* \"#utility.yul\":457:574   */\ntag_25:\n    /* \"#utility.yul\":566:567   */\n  0x00\n    /* \"#utility.yul\":563:564   */\n  dup1\n    /* \"#utility.yul\":556:568   */\n  revert\n    /* \"#utility.yul\":580:682   */\ntag_26:\n    /* \"#utility.yul\":621:627   */\n  0x00\n    /* \"#utility.yul\":672:674   */\n  0x1f\n    /* \"#utility.yul\":668:675   */\n  not\n    /* \"#utility.yul\":663:665   */\n  0x1f\n    /* \"#utility.yul\":656:661   */\n  dup4\n    /* \"#utility.yul\":652:666   */\n  add\n    /* \"#utility.yul\":648:676   */\n  and\n    /* \"#utility.yul\":638:676   */\n  swap1\n  pop\n    /* \"#utility.yul\":580:682   */\n  swap2\n  swap1\n  pop\n  jump\t// out\n    /* \"#utility.yul\":688:868   */\ntag_27:\n    /* \"#utility.yul\":736:813   */\n  0x4e487b7100000000000000000000000000000000000000000000000000000000\n    /* \"#utility.yul\":733:734   */\n  0x00\n    /* \"#utility.yul\":726:814   */\n  mstore\n    /* \"#utility.yul\":833:837   */\n  0x41\n    /* \"#utility.yul\":830:831   */\n  0x04\n    /* \"#utility.yul\":823:838   */\n  mstore\n    /* \"#utility.yul\":857:861   */\n  0x24\n    /* \"#utility.yul\":854:855   */\n  0x00\n    /* \"#utility.yul\":847:862   */\n  revert\n    /* \"#utility.yul\":874:1155   */\ntag_28:\n    /* \"#utility.yul\":957:984   */\n  tag_47\n    /* \"#utility.yul\":979:983   */\n  dup3\n    /* \"#utility.yul\":957:984   */\n  tag_26\n  jump\t// in\ntag_47:\n    /* \"#utility.yul\":949:955   */\n  dup2\n    /* \"#utility.yul\":945:985   */\n  add\n    /* \"#utility.yul\":1087:1093   */\n  dup2\n    /* \"#utility.yul\":1075:1085   */\n  dup2\n    /* \"#utility.yul\":1072:1094   */\n  lt\n    /* \"#utility.yul\":1051:1069   */\n  0xffffffffffffffff\n    /* \"#utility.yul\":1039:1049   */\n  dup3\n    /* \"#utility.yul\":1036:1070   */\n  gt\n    /* \"#utility.yul\":1033:1095   */\n  or\n    /* \"#utility.yul\":1030:1118   */\n  iszero\n  tag_48\n  jumpi\n    /* \"#utility.yul\":1098:1116   */\n  tag_49\n  tag_27\n  jump\t// in\ntag_49:\n    /* \"#utility.yul\":1030:1118   */\ntag_48:\n    /* \"#utility.yul\":1138:1148   */\n  dup1\n    /* \"#utility.yul\":1134:1136   */\n  0x40\n    /* \"#utility.yul\":1127:1149   */\n  mstore\n    /* \"#utility.yul\":917:1155   */\n  pop\n    /* \"#utility.yul\":874:1155   */\n  pop\n  pop\n  jump\t// out\n    /* \"#utility.yul\":1161:1290   */\ntag_29:\n    /* \"#utility.yul\":1195:1201   */\n  0x00\n    /* \"#utility.yul\":1222:1242   */\n  tag_51\n  tag_21\n  jump\t// in\ntag_51:\n    /* \"#utility.yul\":1212:1242   */\n  swap1\n  pop\n    /* \"#utility.yul\":1251:1284   */\n  tag_52\n    /* \"#utility.yul\":1279:1283   */\n  dup3\n    /* \"#utility.yul\":1271:1277   */\n  dup3\n    /* \"#utility.yul\":1251:1284   */\n  tag_28\n  jump\t// in\ntag_52:\n    /* \"#utility.yul\":1161:1290   */\n  swap2\n  swap1\n  pop\n  jump\t// out\n    /* \"#utility.yul\":1296:1604   */\ntag_30:\n    /* \"#utility.yul\":1358:1362   */\n  0x00\n    /* \"#utility.yul\":1448:1466   */\n  0xffffffffffffffff\n    /* \"#utility.yul\":1440:1446   */\n  dup3\n    /* \"#utility.yul\":1437:1467   */\n  gt\n    /* \"#utility.yul\":1434:1490   */\n  iszero\n  tag_54\n  jumpi\n    /* \"#utility.yul\":1470:1488   */\n  tag_55\n  tag_27\n  jump\t// in\ntag_55:\n    /* \"#utility.yul\":1434:1490   */\ntag_54:\n    /* \"#utility.yul\":1508:1537   */\n  tag_56\n    /* \"#utility.yul\":1530:1536   */\n  dup3\n    /* \"#utility.yul\":1508:1537   */\n  tag_26\n  jump\t// in\ntag_56:\n    /* \"#utility.yul\":1500:1537   */\n  swap1\n  pop\n    /* \"#utility.yul\":1592:1596   */\n  0x20\n    /* \"#utility.yul\":1586:1590   */\n  dup2\n    /* \"#utility.yul\":1582:1597   */\n  add\n    /* \"#utility.yul\":1574:1597   */\n  swap1\n  pop\n    /* \"#utility.yul\":1296:1604   */\n  swap2\n  swap1\n  pop\n  jump\t// out\n    /* \"#utility.yul\":1610:1917   */\ntag_31:\n    /* \"#utility.yul\":1678:1679   */\n  0x00\n    /* \"#utility.yul\":1688:1801   */\ntag_58:\n    /* \"#utility.yul\":1702:1708   */\n  dup4\n    /* \"#utility.yul\":1699:1700   */\n  dup2\n    /* \"#utility.yul\":1696:1709   */\n  lt\n    /* \"#utility.yul\":1688:1801   */\n  iszero\n  tag_60\n  jumpi\n    /* \"#utility.yul\":1787:1788   */\n  dup1\n    /* \"#utility.yul\":1782:1785   */\n  dup3\n    /* \"#utility.yul\":1778:1789   */\n  add\n    /* \"#utility.yul\":1772:1790   */\n  mload\n    /* \"#utility.yul\":1768:1769   */\n  dup2\n    /* \"#utility.yul\":1763:1766   */\n  dup5\n    /* \"#utility.yul\":1759:1770   */\n  add\n    /* \"#utility.yul\":1752:1791   */\n  mstore\n    /* \"#utility.yul\":1724:1726   */\n  0x20\n    /* \"#utility.yul\":1721:1722   */\n  dup2\n    /* \"#utility.yul\":1717:1727   */\n  add\n    /* \"#utility.yul\":1712:1727   */\n  swap1\n  pop\n    /* \"#utility.yul\":1688:1801   */\n  jump(tag_58)\ntag_60:\n    /* \"#utility.yul\":1819:1825   */\n  dup4\n    /* \"#utility.yul\":1816:1817   */\n  dup2\n    /* \"#utility.yul\":1813:1826   */\n  gt\n    /* \"#utility.yul\":1810:1911   */\n  iszero\n  tag_61\n  jumpi\n    /* \"#utility.yul\":1899:1900   */\n  0x00\n    /* \"#utility.yul\":1890:1896   */\n  dup5\n    /* \"#utility.yul\":1885:1888   */\n  dup5\n    /* \"#utility.yul\":1881:1897   */\n  add\n    /* \"#utility.yul\":1874:1901   */\n  mstore\n    /* \"#utility.yul\":1810:1911   */\ntag_61:\n    /* \"#utility.yul\":1659:1917   */\n  pop\n    /* \"#utility.yul\":1610:1917   */\n  pop\n  pop\n  pop\n  jump\t// out\n    /* \"#utility.yul\":1923:2344   */\ntag_32:\n    /* \"#utility.yul\":2012:2017   */\n  0x00\n    /* \"#utility.yul\":2037:2103   */\n  tag_63\n    /* \"#utility.yul\":2053:2102   */\n  tag_64\n    /* \"#utility.yul\":2095:2101   */\n  dup5\n    /* \"#utility.yul\":2053:2102   */\n  tag_30\n  jump\t// in\ntag_64:\n    /* \"#utility.yul\":2037:2103   */\n  tag_29\n  jump\t// in\ntag_63:\n    /* \"#utility.yul\":2028:2103   */\n  swap1\n  pop\n    /* \"#utility.yul\":2126:2132   */\n  dup3\n    /* \"#utility.yul\":2119:2124   */\n  dup2\n    /* \"#utility.yul\":2112:2133   */\n  mstore\n    /* \"#utility.yul\":2164:2168   */\n  0x20\n    /* \"#utility.yul\":2157:2162   */\n  dup2\n    /* \"#utility.yul\":2153:2169   */\n  add\n    /* \"#utility.yul\":2202:2205   */\n  dup5\n    /* \"#utility.yul\":2193:2199   */\n  dup5\n    /* \"#utility.yul\":2188:2191   */\n  dup5\n    /* \"#utility.yul\":2184:2200   */\n  add\n    /* \"#utility.yul\":2181:2206   */\n  gt\n    /* \"#utility.yul\":2178:2290   */\n  iszero\n  tag_65\n  jumpi\n    /* \"#utility.yul\":2209:2288   */\n  tag_66\n  tag_25\n  jump\t// in\ntag_66:\n    /* \"#utility.yul\":2178:2290   */\ntag_65:\n    /* \"#utility.yul\":2299:2338   */\n  tag_67\n    /* \"#utility.yul\":2331:2337   */\n  dup5\n    /* \"#utility.yul\":2326:2329   */\n  dup3\n    /* \"#utility.yul\":2321:2324   */\n  dup6\n    /* \"#utility.yul\":2299:2338   */\n  tag_31\n  jump\t// in\ntag_67:\n    /* \"#utility.yul\":2018:2344   */\n  pop\n    /* \"#utility.yul\":1923:2344   */\n  swap4\n  swap3\n  pop\n  pop\n  pop\n  jump\t// out\n    /* \"#utility.yul\":2364:2719   */\ntag_33:\n    /* \"#utility.yul\":2431:2436   */\n  0x00\n    /* \"#utility.yul\":2480:2483   */\n  dup3\n    /* \"#utility.yul\":2473:2477   */\n  0x1f\n    /* \"#utility.yul\":2465:2471   */\n  dup4\n    /* \"#utility.yul\":2461:2478   */\n  add\n    /* \"#utility.yul\":2457:2484   */\n  slt\n    /* \"#utility.yul\":2447:2569   */\n  tag_69\n  jumpi\n    /* \"#utility.yul\":2488:2567   */\n  tag_70\n  tag_24\n  jump\t// in\ntag_70:\n    /* \"#utility.yul\":2447:2569   */\ntag_69:\n    /* \"#utility.yul\":2598:2604   */\n  dup2\n    /* \"#utility.yul\":2592:2605   */\n  mload\n    /* \"#utility.yul\":2623:2713   */\n  tag_71\n    /* \"#utility.yul\":2709:2712   */\n  dup5\n    /* \"#utility.yul\":2701:2707   */\n  dup3\n    /* \"#utility.yul\":2694:2698   */\n  0x20\n    /* \"#utility.yul\":2686:2692   */\n  dup7\n    /* \"#utility.yul\":2682:2699   */\n  add\n    /* \"#utility.yul\":2623:2713   */\n  tag_32\n  jump\t// in\ntag_71:\n    /* \"#utility.yul\":2614:2713   */\n  swap2\n  pop\n    /* \"#utility.yul\":2437:2719   */\n  pop\n    /* \"#utility.yul\":2364:2719   */\n  swap3\n  swap2\n  pop\n  pop\n  jump\t// out\n    /* \"#utility.yul\":2725:2802   */\ntag_34:\n    /* \"#utility.yul\":2762:2769   */\n  0x00\n    /* \"#utility.yul\":2791:2796   */\n  dup2\n    /* \"#utility.yul\":2780:2796   */\n  swap1\n  pop\n    /* \"#utility.yul\":2725:2802   */\n  swap2\n  swap1\n  pop\n  jump\t// out\n    /* \"#utility.yul\":2808:2930   */\ntag_35:\n    /* \"#utility.yul\":2881:2905   */\n  tag_74\n    /* \"#utility.yul\":2899:2904   */\n  dup2\n    /* \"#utility.yul\":2881:2905   */\n  tag_34\n  jump\t// in\ntag_74:\n    /* \"#utility.yul\":2874:2879   */\n  dup2\n    /* \"#utility.yul\":2871:2906   */\n  eq\n    /* \"#utility.yul\":2861:2924   */\n  tag_75\n  jumpi\n    /* \"#utility.yul\":2920:2921   */\n  0x00\n    /* \"#utility.yul\":2917:2918   */\n  dup1\n    /* \"#utility.yul\":2910:2922   */\n  revert\n    /* \"#utility.yul\":2861:2924   */\ntag_75:\n    /* \"#utility.yul\":2808:2930   */\n  pop\n  jump\t// out\n    /* \"#utility.yul\":2936:3079   */\ntag_36:\n    /* \"#utility.yul\":2993:2998   */\n  0x00\n    /* \"#utility.yul\":3024:3030   */\n  dup2\n    /* \"#utility.yul\":3018:3031   */\n  mload\n    /* \"#utility.yul\":3009:3031   */\n  swap1\n  pop\n    /* \"#utility.yul\":3040:3073   */\n  tag_77\n    /* \"#utility.yul\":3067:3072   */\n  dup2\n    /* \"#utility.yul\":3040:3073   */\n  tag_35\n  jump\t// in\ntag_77:\n    /* \"#utility.yul\":2936:3079   */\n  swap3\n  swap2\n  pop\n  pop\n  jump\t// out\n    /* \"#utility.yul\":3085:4722   */\ntag_3:\n    /* \"#utility.yul\":3229:3235   */\n  0x00\n    /* \"#utility.yul\":3237:3243   */\n  dup1\n    /* \"#utility.yul\":3245:3251   */\n  0x00\n    /* \"#utility.yul\":3253:3259   */\n  dup1\n    /* \"#utility.yul\":3261:3267   */\n  0x00\n    /* \"#utility.yul\":3269:3275   */\n  dup1\n    /* \"#utility.yul\":3277:3283   */\n  0x00\n    /* \"#utility.yul\":3326:3329   */\n  0xe0\n    /* \"#utility.yul\":3314:3323   */\n  dup9\n    /* \"#utility.yul\":3305:3312   */\n  dup11\n    /* \"#utility.yul\":3301:3324   */\n  sub\n    /* \"#utility.yul\":3297:3330   */\n  slt\n    /* \"#utility.yul\":3294:3414   */\n  iszero\n  tag_79\n  jumpi\n    /* \"#utility.yul\":3333:3412   */\n  tag_80\n  tag_22\n  jump\t// in\ntag_80:\n    /* \"#utility.yul\":3294:3414   */\ntag_79:\n    /* \"#utility.yul\":3474:3475   */\n  0x00\n    /* \"#utility.yul\":3463:3472   */\n  dup9\n    /* \"#utility.yul\":3459:3476   */\n  add\n    /* \"#utility.yul\":3453:3477   */\n  mload\n    /* \"#utility.yul\":3504:3522   */\n  0xffffffffffffffff\n    /* \"#utility.yul\":3496:3502   */\n  dup2\n    /* \"#utility.yul\":3493:3523   */\n  gt\n    /* \"#utility.yul\":3490:3607   */\n  iszero\n  tag_81\n  jumpi\n    /* \"#utility.yul\":3526:3605   */\n  tag_82\n  tag_23\n  jump\t// in\ntag_82:\n    /* \"#utility.yul\":3490:3607   */\ntag_81:\n    /* \"#utility.yul\":3631:3705   */\n  tag_83\n    /* \"#utility.yul\":3697:3704   */\n  dup11\n    /* \"#utility.yul\":3688:3694   */\n  dup3\n    /* \"#utility.yul\":3677:3686   */\n  dup12\n    /* \"#utility.yul\":3673:3695   */\n  add\n    /* \"#utility.yul\":3631:3705   */\n  tag_33\n  jump\t// in\ntag_83:\n    /* \"#utility.yul\":3621:3705   */\n  swap8\n  pop\n    /* \"#utility.yul\":3424:3715   */\n  pop\n    /* \"#utility.yul\":3775:3777   */\n  0x20\n    /* \"#utility.yul\":3764:3773   */\n  dup9\n    /* \"#utility.yul\":3760:3778   */\n  add\n    /* \"#utility.yul\":3754:3779   */\n  mload\n    /* \"#utility.yul\":3806:3824   */\n  0xffffffffffffffff\n    /* \"#utility.yul\":3798:3804   */\n  dup2\n    /* \"#utility.yul\":3795:3825   */\n  gt\n    /* \"#utility.yul\":3792:3909   */\n  iszero\n  tag_84\n  jumpi\n    /* \"#utility.yul\":3828:3907   */\n  tag_85\n  tag_23\n  jump\t// in\ntag_85:\n    /* \"#utility.yul\":3792:3909   */\ntag_84:\n    /* \"#utility.yul\":3933:4007   */\n  tag_86\n    /* \"#utility.yul\":3999:4006   */\n  dup11\n    /* \"#utility.yul\":3990:3996   */\n  dup3\n    /* \"#utility.yul\":3979:3988   */\n  dup12\n    /* \"#utility.yul\":3975:3997   */\n  add\n    /* \"#utility.yul\":3933:4007   */\n  tag_33\n  jump\t// in\ntag_86:\n    /* \"#utility.yul\":3923:4007   */\n  swap7\n  pop\n    /* \"#utility.yul\":3725:4017   */\n  pop\n    /* \"#utility.yul\":4056:4058   */\n  0x40\n    /* \"#utility.yul\":4082:4146   */\n  tag_87\n    /* \"#utility.yul\":4138:4145   */\n  dup11\n    /* \"#utility.yul\":4129:4135   */\n  dup3\n    /* \"#utility.yul\":4118:4127   */\n  dup12\n    /* \"#utility.yul\":4114:4136   */\n  add\n    /* \"#utility.yul\":4082:4146   */\n  tag_36\n  jump\t// in\ntag_87:\n    /* \"#utility.yul\":4072:4146   */\n  swap6\n  pop\n    /* \"#utility.yul\":4027:4156   */\n  pop\n    /* \"#utility.yul\":4195:4197   */\n  0x60\n    /* \"#utility.yul\":4221:4285   */\n  tag_88\n    /* \"#utility.yul\":4277:4284   */\n  dup11\n    /* \"#utility.yul\":4268:4274   */\n  dup3\n    /* \"#utility.yul\":4257:4266   */\n  dup12\n    /* \"#utility.yul\":4253:4275   */\n  add\n    /* \"#utility.yul\":4221:4285   */\n  tag_36\n  jump\t// in\ntag_88:\n    /* \"#utility.yul\":4211:4285   */\n  swap5\n  pop\n    /* \"#utility.yul\":4166:4295   */\n  pop\n    /* \"#utility.yul\":4334:4337   */\n  0x80\n    /* \"#utility.yul\":4361:4425   */\n  tag_89\n    /* \"#utility.yul\":4417:4424   */\n  dup11\n    /* \"#utility.yul\":4408:4414   */\n  dup3\n    /* \"#utility.yul\":4397:4406   */\n  dup12\n    /* \"#utility.yul\":4393:4415   */\n  add\n    /* \"#utility.yul\":4361:4425   */\n  tag_36\n  jump\t// in\ntag_89:\n    /* \"#utility.yul\":4351:4425   */\n  swap4\n  pop\n    /* \"#utility.yul\":4305:4435   */\n  pop\n    /* \"#utility.yul\":4474:4477   */\n  0xa0\n    /* \"#utility.yul\":4501:4565   */\n  tag_90\n    /* \"#utility.yul\":4557:4564   */\n  dup11\n    /* \"#utility.yul\":4548:4554   */\n  dup3\n    /* \"#utility.yul\":4537:4546   */\n  dup12\n    /* \"#utility.yul\":4533:4555   */\n  add\n    /* \"#utility.yul\":4501:4565   */\n  tag_36\n  jump\t// in\ntag_90:\n    /* \"#utility.yul\":4491:4565   */\n  swap3\n  pop\n    /* \"#utility.yul\":4445:4575   */\n  pop\n    /* \"#utility.yul\":4614:4617   */\n  0xc0\n    /* \"#utility.yul\":4641:4705   */\n  tag_91\n    /* \"#utility.yul\":4697:4704   */\n  dup11\n    /* \"#utility.yul\":4688:4694   */\n  dup3\n    /* \"#utility.yul\":4677:4686   */\n  dup12\n    /* \"#utility.yul\":4673:4695   */\n  add\n    /* \"#utility.yul\":4641:4705   */\n  tag_36\n  jump\t// in\ntag_91:\n    /* \"#utility.yul\":4631:4705   */\n  swap2\n  pop\n    /* \"#utility.yul\":4585:4715   */\n  pop\n    /* \"#utility.yul\":3085:4722   */\n  swap3\n  swap6\n  swap9\n  swap2\n  swap5\n  swap8\n  pop\n  swap3\n  swap6\n  pop\n  jump\t// out\n    /* \"#utility.yul\":4728:4908   */\ntag_37:\n    /* \"#utility.yul\":4776:4853   */\n  0x4e487b7100000000000000000000000000000000000000000000000000000000\n    /* \"#utility.yul\":4773:4774   */\n  0x00\n    /* \"#utility.yul\":4766:4854   */\n  mstore\n    /* \"#utility.yul\":4873:4877   */\n  0x22\n    /* \"#utility.yul\":4870:4871   */\n  0x04\n    /* \"#utility.yul\":4863:4878   */\n  mstore\n    /* \"#utility.yul\":4897:4901   */\n  0x24\n    /* \"#utility.yul\":4894:4895   */\n  0x00\n    /* \"#utility.yul\":4887:4902   */\n  revert\n    /* \"#utility.yul\":4914:5234   */\ntag_11:\n    /* \"#utility.yul\":4958:4964   */\n  0x00\n    /* \"#utility.yul\":4995:4996   */\n  0x02\n    /* \"#utility.yul\":4989:4993   */\n  dup3\n    /* \"#utility.yul\":4985:4997   */\n  div\n    /* \"#utility.yul\":4975:4997   */\n  swap1\n  pop\n    /* \"#utility.yul\":5042:5043   */\n  0x01\n    /* \"#utility.yul\":5036:5040   */\n  dup3\n    /* \"#utility.yul\":5032:5044   */\n  and\n    /* \"#utility.yul\":5063:5081   */\n  dup1\n    /* \"#utility.yul\":5053:5134   */\n  tag_94\n  jumpi\n    /* \"#utility.yul\":5119:5123   */\n  0x7f\n    /* \"#utility.yul\":5111:5117   */\n  dup3\n    /* \"#utility.yul\":5107:5124   */\n  and\n    /* \"#utility.yul\":5097:5124   */\n  swap2\n  pop\n    /* \"#utility.yul\":5053:5134   */\ntag_94:\n    /* \"#utility.yul\":5181:5183   */\n  0x20\n    /* \"#utility.yul\":5173:5179   */\n  dup3\n    /* \"#utility.yul\":5170:5184   */\n  lt\n    /* \"#utility.yul\":5150:5168   */\n  dup2\n    /* \"#utility.yul\":5147:5185   */\n  sub\n    /* \"#utility.yul\":5144:5228   */\n  tag_95\n  jumpi\n    /* \"#utility.yul\":5200:5218   */\n  tag_96\n  tag_37\n  jump\t// in\ntag_96:\n    /* \"#utility.yul\":5144:5228   */\ntag_95:\n    /* \"#utility.yul\":4965:5234   */\n  pop\n    /* \"#utility.yul\":4914:5234   */\n  swap2\n  swap1\n  pop\n  jump\t// out\n    /* \"contractFile\":92:2968  contract MyICO {... */\ntag_9:\n  mload(0x80)\n  mload(0xa0)\n  mload(0xc0)\n  mload(0xe0)\n  mload(0x0100)\n  codecopy(0x00, dataOffset(sub_0), dataSize(sub_0))\n  0x00\n  assignImmutable(\"0x5c4c6aa067b6f8e6cb38e6ab843832a94d1712d661a04d73c517d6a1931a9e5d\")\n  0x00\n  assignImmutable(\"0x7f8b6b088b6d74c2852fc86c796dca07b44eed6fb3daf5e6b59f7c364db14528\")\n  0x00\n  assignImmutable(\"0x1a192fabce13988b84994d4296e6cdc418d55e2f1d7f942188d4040b94fc57ac\")\n  0x00\n  assignImmutable(\"0xe4b1702d9298fee62dfeccc57d322a463ad55ca201256d01f62b45b2e1c21c10\")\n  0x00\n  assignImmutable(\"0xe455bf8ea6e7463a1046a0b52804526e119b4bf5136279614e0b1e8e296a4e2d\")\n  return(0x00, dataSize(sub_0))\nstop\n\nsub_0: assembly {\n        /* \"contractFile\":92:2968  contract MyICO {... */\n      mstore(0x40, 0x80)\n      jumpi(tag_1, lt(calldatasize, 0x04))\n      shr(0xe0, calldataload(0x00))\n      dup1\n      0x7b61c320\n      gt\n      tag_10\n      jumpi\n      dup1\n      0x7b61c320\n      eq\n      tag_6\n      jumpi\n      dup1\n      0xa4821719\n      eq\n      tag_7\n      jumpi\n      dup1\n      0xcb282253\n      eq\n      tag_8\n      jumpi\n      dup1\n      0xea933b9d\n      eq\n      tag_9\n      jumpi\n      jump(tag_1)\n    tag_10:\n      dup1\n      0x255c3792\n      eq\n      tag_2\n      jumpi\n      dup1\n      0x4a4c560d\n      eq\n      tag_3\n      jumpi\n      dup1\n      0x51999b5c\n      eq\n      tag_4\n      jumpi\n      dup1\n      0x6c02a931\n      eq\n      tag_5\n      jumpi\n    tag_1:\n      0x00\n      dup1\n      revert\n        /* \"contractFile\":1647:1756  function checkWhitelistedAccount() external view returns (bool) {... */\n    tag_2:\n      callvalue\n      dup1\n      iszero\n      tag_11\n      jumpi\n      0x00\n      dup1\n      revert\n    tag_11:\n      pop\n      tag_12\n      tag_13\n      jump\t// in\n    tag_12:\n      mload(0x40)\n      tag_14\n      swap2\n      swap1\n      tag_15\n      jump\t// in\n    tag_14:\n      mload(0x40)\n      dup1\n      swap2\n      sub\n      swap1\n      return\n        /* \"contractFile\":1438:1602  function whitelistUser(address _adr) external isOwner {... */\n    tag_3:\n      callvalue\n      dup1\n      iszero\n      tag_16\n      jumpi\n      0x00\n      dup1\n      revert\n    tag_16:\n      pop\n      tag_17\n      0x04\n      dup1\n      calldatasize\n      sub\n      dup2\n      add\n      swap1\n      tag_18\n      swap2\n      swap1\n      tag_19\n      jump\t// in\n    tag_18:\n      tag_20\n      jump\t// in\n    tag_17:\n      stop\n        /* \"contractFile\":2718:2814  function getUnsoldTokenCount() external view returns (uint) {... */\n    tag_4:\n      callvalue\n      dup1\n      iszero\n      tag_21\n      jumpi\n      0x00\n      dup1\n      revert\n    tag_21:\n      pop\n      tag_22\n      tag_23\n      jump\t// in\n    tag_22:\n      mload(0x40)\n      tag_24\n      swap2\n      swap1\n      tag_25\n      jump\t// in\n    tag_24:\n      mload(0x40)\n      dup1\n      swap2\n      sub\n      swap1\n      return\n        /* \"contractFile\":312:335  string public tokenName */\n    tag_5:\n      callvalue\n      dup1\n      iszero\n      tag_26\n      jumpi\n      0x00\n      dup1\n      revert\n    tag_26:\n      pop\n      tag_27\n      tag_28\n      jump\t// in\n    tag_27:\n      mload(0x40)\n      tag_29\n      swap2\n      swap1\n      tag_30\n      jump\t// in\n    tag_29:\n      mload(0x40)\n      dup1\n      swap2\n      sub\n      swap1\n      return\n        /* \"contractFile\":341:366  string public tokenSymbol */\n    tag_6:\n      callvalue\n      dup1\n      iszero\n      tag_31\n      jumpi\n      0x00\n      dup1\n      revert\n    tag_31:\n      pop\n      tag_32\n      tag_33\n      jump\t// in\n    tag_32:\n      mload(0x40)\n      tag_34\n      swap2\n      swap1\n      tag_30\n      jump\t// in\n    tag_34:\n      mload(0x40)\n      dup1\n      swap2\n      sub\n      swap1\n      return\n        /* \"contractFile\":1795:2522  function buyToken() external payable isWhitelisted isSaleOpen {... */\n    tag_7:\n      tag_35\n      tag_36\n      jump\t// in\n    tag_35:\n      stop\n        /* \"contractFile\":2861:2966  function totalEthContributed() external view returns (uint) {... */\n    tag_8:\n      callvalue\n      dup1\n      iszero\n      tag_37\n      jumpi\n      0x00\n      dup1\n      revert\n    tag_37:\n      pop\n      tag_38\n      tag_39\n      jump\t// in\n    tag_38:\n      mload(0x40)\n      tag_40\n      swap2\n      swap1\n      tag_25\n      jump\t// in\n    tag_40:\n      mload(0x40)\n      dup1\n      swap2\n      sub\n      swap1\n      return\n        /* \"contractFile\":2565:2671  function getTokenPurchasedCount() external view returns (uint) {... */\n    tag_9:\n      callvalue\n      dup1\n      iszero\n      tag_41\n      jumpi\n      0x00\n      dup1\n      revert\n    tag_41:\n      pop\n      tag_42\n      tag_43\n      jump\t// in\n    tag_42:\n      mload(0x40)\n      tag_44\n      swap2\n      swap1\n      tag_25\n      jump\t// in\n    tag_44:\n      mload(0x40)\n      dup1\n      swap2\n      sub\n      swap1\n      return\n        /* \"contractFile\":1647:1756  function checkWhitelistedAccount() external view returns (bool) {... */\n    tag_13:\n        /* \"contractFile\":1705:1709  bool */\n      0x00\n        /* \"contractFile\":1728:1737  whitelist */\n      0x05\n        /* \"contractFile\":1728:1749  whitelist[msg.sender] */\n      0x00\n        /* \"contractFile\":1738:1748  msg.sender */\n      caller\n        /* \"contractFile\":1728:1749  whitelist[msg.sender] */\n      0xffffffffffffffffffffffffffffffffffffffff\n      and\n      0xffffffffffffffffffffffffffffffffffffffff\n      and\n      dup2\n      mstore\n      0x20\n      add\n      swap1\n      dup2\n      mstore\n      0x20\n      add\n      0x00\n      keccak256\n      0x00\n      swap1\n      sload\n      swap1\n      0x0100\n      exp\n      swap1\n      div\n      0xff\n      and\n        /* \"contractFile\":1721:1749  return whitelist[msg.sender] */\n      swap1\n      pop\n        /* \"contractFile\":1647:1756  function checkWhitelistedAccount() external view returns (bool) {... */\n      swap1\n      jump\t// out\n        /* \"contractFile\":1438:1602  function whitelistUser(address _adr) external isOwner {... */\n    tag_20:\n        /* \"contractFile\":1099:1105  wallet */\n      0x03\n      0x00\n      swap1\n      sload\n      swap1\n      0x0100\n      exp\n      swap1\n      div\n      0xffffffffffffffffffffffffffffffffffffffff\n      and\n        /* \"contractFile\":1085:1105  msg.sender == wallet */\n      0xffffffffffffffffffffffffffffffffffffffff\n      and\n        /* \"contractFile\":1085:1095  msg.sender */\n      caller\n        /* \"contractFile\":1085:1105  msg.sender == wallet */\n      0xffffffffffffffffffffffffffffffffffffffff\n      and\n      eq\n        /* \"contractFile\":1077:1136  require(msg.sender == wallet, \"Only owner can access this\") */\n      tag_47\n      jumpi\n      mload(0x40)\n      0x08c379a000000000000000000000000000000000000000000000000000000000\n      dup2\n      mstore\n      0x04\n      add\n      tag_48\n      swap1\n      tag_49\n      jump\t// in\n    tag_48:\n      mload(0x40)\n      dup1\n      swap2\n      sub\n      swap1\n      revert\n    tag_47:\n        /* \"contractFile\":1511:1520  whitelist */\n      0x05\n        /* \"contractFile\":1511:1526  whitelist[_adr] */\n      0x00\n        /* \"contractFile\":1521:1525  _adr */\n      dup3\n        /* \"contractFile\":1511:1526  whitelist[_adr] */\n      0xffffffffffffffffffffffffffffffffffffffff\n      and\n      0xffffffffffffffffffffffffffffffffffffffff\n      and\n      dup2\n      mstore\n      0x20\n      add\n      swap1\n      dup2\n      mstore\n      0x20\n      add\n      0x00\n      keccak256\n      0x00\n      swap1\n      sload\n      swap1\n      0x0100\n      exp\n      swap1\n      div\n      0xff\n      and\n        /* \"contractFile\":1510:1526  !whitelist[_adr] */\n      iszero\n        /* \"contractFile\":1502:1563  require(!whitelist[_adr], \"Address is already whitelisted!!\") */\n      tag_51\n      jumpi\n      mload(0x40)\n      0x08c379a000000000000000000000000000000000000000000000000000000000\n      dup2\n      mstore\n      0x04\n      add\n      tag_52\n      swap1\n      tag_53\n      jump\t// in\n    tag_52:\n      mload(0x40)\n      dup1\n      swap2\n      sub\n      swap1\n      revert\n    tag_51:\n        /* \"contractFile\":1591:1595  true */\n      0x01\n        /* \"contractFile\":1573:1582  whitelist */\n      0x05\n        /* \"contractFile\":1573:1588  whitelist[_adr] */\n      0x00\n        /* \"contractFile\":1583:1587  _adr */\n      dup4\n        /* \"contractFile\":1573:1588  whitelist[_adr] */\n      0xffffffffffffffffffffffffffffffffffffffff\n      and\n      0xffffffffffffffffffffffffffffffffffffffff\n      and\n      dup2\n      mstore\n      0x20\n      add\n      swap1\n      dup2\n      mstore\n      0x20\n      add\n      0x00\n      keccak256\n      0x00\n        /* \"contractFile\":1573:1595  whitelist[_adr] = true */\n      0x0100\n      exp\n      dup2\n      sload\n      dup2\n      0xff\n      mul\n      not\n      and\n      swap1\n      dup4\n      iszero\n      iszero\n      mul\n      or\n      swap1\n      sstore\n      pop\n        /* \"contractFile\":1438:1602  function whitelistUser(address _adr) external isOwner {... */\n      pop\n      jump\t// out\n        /* \"contractFile\":2718:2814  function getUnsoldTokenCount() external view returns (uint) {... */\n    tag_23:\n        /* \"contractFile\":2772:2776  uint */\n      0x00\n        /* \"contractFile\":2795:2807  unsoldTokens */\n      dup1\n      sload\n        /* \"contractFile\":2788:2807  return unsoldTokens */\n      swap1\n      pop\n        /* \"contractFile\":2718:2814  function getUnsoldTokenCount() external view returns (uint) {... */\n      swap1\n      jump\t// out\n        /* \"contractFile\":312:335  string public tokenName */\n    tag_28:\n      0x01\n      dup1\n      sload\n      tag_55\n      swap1\n      tag_56\n      jump\t// in\n    tag_55:\n      dup1\n      0x1f\n      add\n      0x20\n      dup1\n      swap2\n      div\n      mul\n      0x20\n      add\n      mload(0x40)\n      swap1\n      dup2\n      add\n      0x40\n      mstore\n      dup1\n      swap3\n      swap2\n      swap1\n      dup2\n      dup2\n      mstore\n      0x20\n      add\n      dup3\n      dup1\n      sload\n      tag_57\n      swap1\n      tag_56\n      jump\t// in\n    tag_57:\n      dup1\n      iszero\n      tag_58\n      jumpi\n      dup1\n      0x1f\n      lt\n      tag_59\n      jumpi\n      0x0100\n      dup1\n      dup4\n      sload\n      div\n      mul\n      dup4\n      mstore\n      swap2\n      0x20\n      add\n      swap2\n      jump(tag_58)\n    tag_59:\n      dup3\n      add\n      swap2\n      swap1\n      0x00\n      mstore\n      keccak256(0x00, 0x20)\n      swap1\n    tag_60:\n      dup2\n      sload\n      dup2\n      mstore\n      swap1\n      0x01\n      add\n      swap1\n      0x20\n      add\n      dup1\n      dup4\n      gt\n      tag_60\n      jumpi\n      dup3\n      swap1\n      sub\n      0x1f\n      and\n      dup3\n      add\n      swap2\n    tag_58:\n      pop\n      pop\n      pop\n      pop\n      pop\n      dup2\n      jump\t// out\n        /* \"contractFile\":341:366  string public tokenSymbol */\n    tag_33:\n      0x02\n      dup1\n      sload\n      tag_61\n      swap1\n      tag_56\n      jump\t// in\n    tag_61:\n      dup1\n      0x1f\n      add\n      0x20\n      dup1\n      swap2\n      div\n      mul\n      0x20\n      add\n      mload(0x40)\n      swap1\n      dup2\n      add\n      0x40\n      mstore\n      dup1\n      swap3\n      swap2\n      swap1\n      dup2\n      dup2\n      mstore\n      0x20\n      add\n      dup3\n      dup1\n      sload\n      tag_62\n      swap1\n      tag_56\n      jump\t// in\n    tag_62:\n      dup1\n      iszero\n      tag_63\n      jumpi\n      dup1\n      0x1f\n      lt\n      tag_64\n      jumpi\n      0x0100\n      dup1\n      dup4\n      sload\n      div\n      mul\n      dup4\n      mstore\n      swap2\n      0x20\n      add\n      swap2\n      jump(tag_63)\n    tag_64:\n      dup3\n      add\n      swap2\n      swap1\n      0x00\n      mstore\n      keccak256(0x00, 0x20)\n      swap1\n    tag_65:\n      dup2\n      sload\n      dup2\n      mstore\n      swap1\n      0x01\n      add\n      swap1\n      0x20\n      add\n      dup1\n      dup4\n      gt\n      tag_65\n      jumpi\n      dup3\n      swap1\n      sub\n      0x1f\n      and\n      dup3\n      add\n      swap2\n    tag_63:\n      pop\n      pop\n      pop\n      pop\n      pop\n      dup2\n      jump\t// out\n        /* \"contractFile\":1795:2522  function buyToken() external payable isWhitelisted isSaleOpen {... */\n    tag_36:\n        /* \"contractFile\":1201:1210  whitelist */\n      0x05\n        /* \"contractFile\":1201:1222  whitelist[msg.sender] */\n      0x00\n        /* \"contractFile\":1211:1221  msg.sender */\n      caller\n        /* \"contractFile\":1201:1222  whitelist[msg.sender] */\n      0xffffffffffffffffffffffffffffffffffffffff\n      and\n      0xffffffffffffffffffffffffffffffffffffffff\n      and\n      dup2\n      mstore\n      0x20\n      add\n      swap1\n      dup2\n      mstore\n      0x20\n      add\n      0x00\n      keccak256\n      0x00\n      swap1\n      sload\n      swap1\n      0x0100\n      exp\n      swap1\n      div\n      0xff\n      and\n        /* \"contractFile\":1193:1259  require(whitelist[msg.sender], \"This address is not whitelisted.\") */\n      tag_67\n      jumpi\n      mload(0x40)\n      0x08c379a000000000000000000000000000000000000000000000000000000000\n      dup2\n      mstore\n      0x04\n      add\n      tag_68\n      swap1\n      tag_69\n      jump\t// in\n    tag_68:\n      mload(0x40)\n      dup1\n      swap2\n      sub\n      swap1\n      revert\n    tag_67:\n        /* \"contractFile\":1336:1337  0 */\n      0x00\n        /* \"contractFile\":1321:1333  unsoldTokens */\n      dup1\n      sload\n        /* \"contractFile\":1321:1337  unsoldTokens > 0 */\n      gt\n        /* \"contractFile\":1313:1383  require(unsoldTokens > 0, \"Token Sale is over as all tokens are sold\") */\n      tag_71\n      jumpi\n      mload(0x40)\n      0x08c379a000000000000000000000000000000000000000000000000000000000\n      dup2\n      mstore\n      0x04\n      add\n      tag_72\n      swap1\n      tag_73\n      jump\t// in\n    tag_72:\n      mload(0x40)\n      dup1\n      swap2\n      sub\n      swap1\n      revert\n    tag_71:\n        /* \"contractFile\":1867:1887  uint tokensPurchased */\n      0x00\n        /* \"contractFile\":1912:1922  ethToToken */\n      immutable(\"0xe4b1702d9298fee62dfeccc57d322a463ad55ca201256d01f62b45b2e1c21c10\")\n        /* \"contractFile\":1901:1908  1 ether */\n      0x0de0b6b3a7640000\n        /* \"contractFile\":1891:1900  msg.value */\n      callvalue\n        /* \"contractFile\":1891:1908  msg.value/1 ether */\n      tag_75\n      swap2\n      swap1\n      tag_76\n      jump\t// in\n    tag_75:\n        /* \"contractFile\":1890:1922  (msg.value/1 ether) * ethToToken */\n      tag_77\n      swap2\n      swap1\n      tag_78\n      jump\t// in\n    tag_77:\n        /* \"contractFile\":1867:1922  uint tokensPurchased = (msg.value/1 ether) * ethToToken */\n      swap1\n      pop\n        /* \"contractFile\":1959:1975  minPurchaseLimit */\n      immutable(\"0x7f8b6b088b6d74c2852fc86c796dca07b44eed6fb3daf5e6b59f7c364db14528\")\n        /* \"contractFile\":1940:1955  tokensPurchased */\n      dup2\n        /* \"contractFile\":1940:1975  tokensPurchased >= minPurchaseLimit */\n      lt\n      iszero\n        /* \"contractFile\":1997:2023  bytes(\"You have breached\") */\n      mload(0x40)\n      dup1\n      0x40\n      add\n      0x40\n      mstore\n      dup1\n      0x11\n      dup2\n      mstore\n      0x20\n      add\n      0x596f752068617665206272656163686564000000000000000000000000000000\n      dup2\n      mstore\n      pop\n        /* \"contractFile\":2025:2059  bytes(\" Min Token Purchase limit\") */\n      mload(0x40)\n      dup1\n      0x40\n      add\n      0x40\n      mstore\n      dup1\n      0x19\n      dup2\n      mstore\n      0x20\n      add\n      0x204d696e20546f6b656e205075726368617365206c696d697400000000000000\n      dup2\n      mstore\n      pop\n        /* \"contractFile\":1984:2060  bytes.concat(bytes(\"You have breached\"), bytes(\" Min Token Purchase limit\")) */\n      add(0x20, mload(0x40))\n      tag_79\n      swap3\n      swap2\n      swap1\n      tag_80\n      jump\t// in\n    tag_79:\n      mload(0x40)\n      0x20\n      dup2\n      dup4\n      sub\n      sub\n      dup2\n      mstore\n      swap1\n      0x40\n      mstore\n        /* \"contractFile\":1932:2062  require(tokensPurchased >= minPurchaseLimit, string(bytes.concat(bytes(\"You have breached\"), bytes(\" Min Token Purchase limit\")))) */\n      swap1\n      tag_81\n      jumpi\n      mload(0x40)\n      0x08c379a000000000000000000000000000000000000000000000000000000000\n      dup2\n      mstore\n      0x04\n      add\n      tag_82\n      swap2\n      swap1\n      tag_30\n      jump\t// in\n    tag_82:\n      mload(0x40)\n      dup1\n      swap2\n      sub\n      swap1\n      revert\n    tag_81:\n      pop\n        /* \"contractFile\":2099:2115  maxPurchaseLimit */\n      immutable(\"0x5c4c6aa067b6f8e6cb38e6ab843832a94d1712d661a04d73c517d6a1931a9e5d\")\n        /* \"contractFile\":2080:2095  tokensPurchased */\n      dup2\n        /* \"contractFile\":2080:2115  tokensPurchased <= maxPurchaseLimit */\n      gt\n      iszero\n        /* \"contractFile\":2124:2186  bytes.concat(\"You have breached\", \" Max Token Purchase limit\") */\n      add(0x20, mload(0x40))\n      tag_83\n      swap1\n      tag_84\n      jump\t// in\n    tag_83:\n      mload(0x40)\n      0x20\n      dup2\n      dup4\n      sub\n      sub\n      dup2\n      mstore\n      swap1\n      0x40\n      mstore\n        /* \"contractFile\":2072:2188  require(tokensPurchased <= maxPurchaseLimit, string(bytes.concat(\"You have breached\", \" Max Token Purchase limit\"))) */\n      swap1\n      tag_85\n      jumpi\n      mload(0x40)\n      0x08c379a000000000000000000000000000000000000000000000000000000000\n      dup2\n      mstore\n      0x04\n      add\n      tag_86\n      swap2\n      swap1\n      tag_30\n      jump\t// in\n    tag_86:\n      mload(0x40)\n      dup1\n      swap2\n      sub\n      swap1\n      revert\n    tag_85:\n      pop\n        /* \"contractFile\":2222:2237  tokensPurchased */\n      dup1\n        /* \"contractFile\":2206:2218  unsoldTokens */\n      sload(0x00)\n        /* \"contractFile\":2206:2237  unsoldTokens >= tokensPurchased */\n      lt\n      iszero\n        /* \"contractFile\":2198:2270  require(unsoldTokens >= tokensPurchased, \"Not enough token to purchase\") */\n      tag_87\n      jumpi\n      mload(0x40)\n      0x08c379a000000000000000000000000000000000000000000000000000000000\n      dup2\n      mstore\n      0x04\n      add\n      tag_88\n      swap1\n      tag_89\n      jump\t// in\n    tag_88:\n      mload(0x40)\n      dup1\n      swap2\n      sub\n      swap1\n      revert\n    tag_87:\n        /* \"contractFile\":2304:2319  tokensPurchased */\n      dup1\n        /* \"contractFile\":2280:2288  balances */\n      0x04\n        /* \"contractFile\":2280:2300  balances[msg.sender] */\n      0x00\n        /* \"contractFile\":2289:2299  msg.sender */\n      caller\n        /* \"contractFile\":2280:2300  balances[msg.sender] */\n      0xffffffffffffffffffffffffffffffffffffffff\n      and\n      0xffffffffffffffffffffffffffffffffffffffff\n      and\n      dup2\n      mstore\n      0x20\n      add\n      swap1\n      dup2\n      mstore\n      0x20\n      add\n      0x00\n      keccak256\n      0x00\n        /* \"contractFile\":2280:2319  balances[msg.sender] += tokensPurchased */\n      dup3\n      dup3\n      sload\n      tag_90\n      swap2\n      swap1\n      tag_91\n      jump\t// in\n    tag_90:\n      swap3\n      pop\n      pop\n      dup2\n      swap1\n      sstore\n      pop\n        /* \"contractFile\":2345:2360  tokensPurchased */\n      dup1\n        /* \"contractFile\":2329:2341  unsoldTokens */\n      0x00\n      dup1\n        /* \"contractFile\":2329:2360  unsoldTokens -= tokensPurchased */\n      dup3\n      dup3\n      sload\n      tag_92\n      swap2\n      swap1\n      tag_93\n      jump\t// in\n    tag_92:\n      swap3\n      pop\n      pop\n      dup2\n      swap1\n      sstore\n      pop\n        /* \"contractFile\":2436:2442  wallet */\n      0x03\n      0x00\n      swap1\n      sload\n      swap1\n      0x0100\n      exp\n      swap1\n      div\n      0xffffffffffffffffffffffffffffffffffffffff\n      and\n        /* \"contractFile\":2436:2451  wallet.transfer */\n      0xffffffffffffffffffffffffffffffffffffffff\n      and\n        /* \"contractFile\":2436:2462  wallet.transfer(msg.value) */\n      0x08fc\n        /* \"contractFile\":2452:2461  msg.value */\n      callvalue\n        /* \"contractFile\":2436:2462  wallet.transfer(msg.value) */\n      swap1\n      dup2\n      iszero\n      mul\n      swap1\n      mload(0x40)\n      0x00\n      mload(0x40)\n      dup1\n      dup4\n      sub\n      dup2\n      dup6\n      dup9\n      dup9\n      call\n      swap4\n      pop\n      pop\n      pop\n      pop\n      iszero\n      dup1\n      iszero\n      tag_95\n      jumpi\n      returndatasize\n      0x00\n      dup1\n      returndatacopy\n      revert(0x00, returndatasize)\n    tag_95:\n      pop\n        /* \"contractFile\":2477:2515  Purchased(msg.sender, tokensPurchased) */\n      0xa512fb2532ca8587f236380171326ebb69670e86a2ba0c4412a3fcca4c3ada9b\n        /* \"contractFile\":2487:2497  msg.sender */\n      caller\n        /* \"contractFile\":2499:2514  tokensPurchased */\n      dup3\n        /* \"contractFile\":2477:2515  Purchased(msg.sender, tokensPurchased) */\n      mload(0x40)\n      tag_96\n      swap3\n      swap2\n      swap1\n      tag_97\n      jump\t// in\n    tag_96:\n      mload(0x40)\n      dup1\n      swap2\n      sub\n      swap1\n      log1\n        /* \"contractFile\":1857:2522  {... */\n      pop\n        /* \"contractFile\":1795:2522  function buyToken() external payable isWhitelisted isSaleOpen {... */\n      jump\t// out\n        /* \"contractFile\":2861:2966  function totalEthContributed() external view returns (uint) {... */\n    tag_39:\n        /* \"contractFile\":2915:2919  uint */\n      0x00\n        /* \"contractFile\":2938:2959  address(this).balance */\n      selfbalance\n        /* \"contractFile\":2931:2959  return address(this).balance */\n      swap1\n      pop\n        /* \"contractFile\":2861:2966  function totalEthContributed() external view returns (uint) {... */\n      swap1\n      jump\t// out\n        /* \"contractFile\":2565:2671  function getTokenPurchasedCount() external view returns (uint) {... */\n    tag_43:\n        /* \"contractFile\":2622:2626  uint */\n      0x00\n        /* \"contractFile\":2645:2653  balances */\n      0x04\n        /* \"contractFile\":2645:2664  balances[tx.origin] */\n      0x00\n        /* \"contractFile\":2654:2663  tx.origin */\n      origin\n        /* \"contractFile\":2645:2664  balances[tx.origin] */\n      0xffffffffffffffffffffffffffffffffffffffff\n      and\n      0xffffffffffffffffffffffffffffffffffffffff\n      and\n      dup2\n      mstore\n      0x20\n      add\n      swap1\n      dup2\n      mstore\n      0x20\n      add\n      0x00\n      keccak256\n      sload\n        /* \"contractFile\":2638:2664  return balances[tx.origin] */\n      swap1\n      pop\n        /* \"contractFile\":2565:2671  function getTokenPurchasedCount() external view returns (uint) {... */\n      swap1\n      jump\t// out\n        /* \"#utility.yul\":7:97   */\n    tag_100:\n        /* \"#utility.yul\":41:48   */\n      0x00\n        /* \"#utility.yul\":84:89   */\n      dup2\n        /* \"#utility.yul\":77:90   */\n      iszero\n        /* \"#utility.yul\":70:91   */\n      iszero\n        /* \"#utility.yul\":59:91   */\n      swap1\n      pop\n        /* \"#utility.yul\":7:97   */\n      swap2\n      swap1\n      pop\n      jump\t// out\n        /* \"#utility.yul\":103:212   */\n    tag_101:\n        /* \"#utility.yul\":184:205   */\n      tag_138\n        /* \"#utility.yul\":199:204   */\n      dup2\n        /* \"#utility.yul\":184:205   */\n      tag_100\n      jump\t// in\n    tag_138:\n        /* \"#utility.yul\":179:182   */\n      dup3\n        /* \"#utility.yul\":172:206   */\n      mstore\n        /* \"#utility.yul\":103:212   */\n      pop\n      pop\n      jump\t// out\n        /* \"#utility.yul\":218:428   */\n    tag_15:\n        /* \"#utility.yul\":305:309   */\n      0x00\n        /* \"#utility.yul\":343:345   */\n      0x20\n        /* \"#utility.yul\":332:341   */\n      dup3\n        /* \"#utility.yul\":328:346   */\n      add\n        /* \"#utility.yul\":320:346   */\n      swap1\n      pop\n        /* \"#utility.yul\":356:421   */\n      tag_140\n        /* \"#utility.yul\":418:419   */\n      0x00\n        /* \"#utility.yul\":407:416   */\n      dup4\n        /* \"#utility.yul\":403:420   */\n      add\n        /* \"#utility.yul\":394:400   */\n      dup5\n        /* \"#utility.yul\":356:421   */\n      tag_101\n      jump\t// in\n    tag_140:\n        /* \"#utility.yul\":218:428   */\n      swap3\n      swap2\n      pop\n      pop\n      jump\t// out\n        /* \"#utility.yul\":515:632   */\n    tag_103:\n        /* \"#utility.yul\":624:625   */\n      0x00\n        /* \"#utility.yul\":621:622   */\n      dup1\n        /* \"#utility.yul\":614:626   */\n      revert\n        /* \"#utility.yul\":761:887   */\n    tag_105:\n        /* \"#utility.yul\":798:805   */\n      0x00\n        /* \"#utility.yul\":838:880   */\n      0xffffffffffffffffffffffffffffffffffffffff\n        /* \"#utility.yul\":831:836   */\n      dup3\n        /* \"#utility.yul\":827:881   */\n      and\n        /* \"#utility.yul\":816:881   */\n      swap1\n      pop\n        /* \"#utility.yul\":761:887   */\n      swap2\n      swap1\n      pop\n      jump\t// out\n        /* \"#utility.yul\":893:989   */\n    tag_106:\n        /* \"#utility.yul\":930:937   */\n      0x00\n        /* \"#utility.yul\":959:983   */\n      tag_146\n        /* \"#utility.yul\":977:982   */\n      dup3\n        /* \"#utility.yul\":959:983   */\n      tag_105\n      jump\t// in\n    tag_146:\n        /* \"#utility.yul\":948:983   */\n      swap1\n      pop\n        /* \"#utility.yul\":893:989   */\n      swap2\n      swap1\n      pop\n      jump\t// out\n        /* \"#utility.yul\":995:1117   */\n    tag_107:\n        /* \"#utility.yul\":1068:1092   */\n      tag_148\n        /* \"#utility.yul\":1086:1091   */\n      dup2\n        /* \"#utility.yul\":1068:1092   */\n      tag_106\n      jump\t// in\n    tag_148:\n        /* \"#utility.yul\":1061:1066   */\n      dup2\n        /* \"#utility.yul\":1058:1093   */\n      eq\n        /* \"#utility.yul\":1048:1111   */\n      tag_149\n      jumpi\n        /* \"#utility.yul\":1107:1108   */\n      0x00\n        /* \"#utility.yul\":1104:1105   */\n      dup1\n        /* \"#utility.yul\":1097:1109   */\n      revert\n        /* \"#utility.yul\":1048:1111   */\n    tag_149:\n        /* \"#utility.yul\":995:1117   */\n      pop\n      jump\t// out\n        /* \"#utility.yul\":1123:1262   */\n    tag_108:\n        /* \"#utility.yul\":1169:1174   */\n      0x00\n        /* \"#utility.yul\":1207:1213   */\n      dup2\n        /* \"#utility.yul\":1194:1214   */\n      calldataload\n        /* \"#utility.yul\":1185:1214   */\n      swap1\n      pop\n        /* \"#utility.yul\":1223:1256   */\n      tag_151\n        /* \"#utility.yul\":1250:1255   */\n      dup2\n        /* \"#utility.yul\":1223:1256   */\n      tag_107\n      jump\t// in\n    tag_151:\n        /* \"#utility.yul\":1123:1262   */\n      swap3\n      swap2\n      pop\n      pop\n      jump\t// out\n        /* \"#utility.yul\":1268:1597   */\n    tag_19:\n        /* \"#utility.yul\":1327:1333   */\n      0x00\n        /* \"#utility.yul\":1376:1378   */\n      0x20\n        /* \"#utility.yul\":1364:1373   */\n      dup3\n        /* \"#utility.yul\":1355:1362   */\n      dup5\n        /* \"#utility.yul\":1351:1374   */\n      sub\n        /* \"#utility.yul\":1347:1379   */\n      slt\n        /* \"#utility.yul\":1344:1463   */\n      iszero\n      tag_153\n      jumpi\n        /* \"#utility.yul\":1382:1461   */\n      tag_154\n      tag_103\n      jump\t// in\n    tag_154:\n        /* \"#utility.yul\":1344:1463   */\n    tag_153:\n        /* \"#utility.yul\":1502:1503   */\n      0x00\n        /* \"#utility.yul\":1527:1580   */\n      tag_155\n        /* \"#utility.yul\":1572:1579   */\n      dup5\n        /* \"#utility.yul\":1563:1569   */\n      dup3\n        /* \"#utility.yul\":1552:1561   */\n      dup6\n        /* \"#utility.yul\":1548:1570   */\n      add\n        /* \"#utility.yul\":1527:1580   */\n      tag_108\n      jump\t// in\n    tag_155:\n        /* \"#utility.yul\":1517:1580   */\n      swap2\n      pop\n        /* \"#utility.yul\":1473:1590   */\n      pop\n        /* \"#utility.yul\":1268:1597   */\n      swap3\n      swap2\n      pop\n      pop\n      jump\t// out\n        /* \"#utility.yul\":1603:1680   */\n    tag_109:\n        /* \"#utility.yul\":1640:1647   */\n      0x00\n        /* \"#utility.yul\":1669:1674   */\n      dup2\n        /* \"#utility.yul\":1658:1674   */\n      swap1\n      pop\n        /* \"#utility.yul\":1603:1680   */\n      swap2\n      swap1\n      pop\n      jump\t// out\n        /* \"#utility.yul\":1686:1804   */\n    tag_110:\n        /* \"#utility.yul\":1773:1797   */\n      tag_158\n        /* \"#utility.yul\":1791:1796   */\n      dup2\n        /* \"#utility.yul\":1773:1797   */\n      tag_109\n      jump\t// in\n    tag_158:\n        /* \"#utility.yul\":1768:1771   */\n      dup3\n        /* \"#utility.yul\":1761:1798   */\n      mstore\n        /* \"#utility.yul\":1686:1804   */\n      pop\n      pop\n      jump\t// out\n        /* \"#utility.yul\":1810:2032   */\n    tag_25:\n        /* \"#utility.yul\":1903:1907   */\n      0x00\n        /* \"#utility.yul\":1941:1943   */\n      0x20\n        /* \"#utility.yul\":1930:1939   */\n      dup3\n        /* \"#utility.yul\":1926:1944   */\n      add\n        /* \"#utility.yul\":1918:1944   */\n      swap1\n      pop\n        /* \"#utility.yul\":1954:2025   */\n      tag_160\n        /* \"#utility.yul\":2022:2023   */\n      0x00\n        /* \"#utility.yul\":2011:2020   */\n      dup4\n        /* \"#utility.yul\":2007:2024   */\n      add\n        /* \"#utility.yul\":1998:2004   */\n      dup5\n        /* \"#utility.yul\":1954:2025   */\n      tag_110\n      jump\t// in\n    tag_160:\n        /* \"#utility.yul\":1810:2032   */\n      swap3\n      swap2\n      pop\n      pop\n      jump\t// out\n        /* \"#utility.yul\":2038:2137   */\n    tag_111:\n        /* \"#utility.yul\":2090:2096   */\n      0x00\n        /* \"#utility.yul\":2124:2129   */\n      dup2\n        /* \"#utility.yul\":2118:2130   */\n      mload\n        /* \"#utility.yul\":2108:2130   */\n      swap1\n      pop\n        /* \"#utility.yul\":2038:2137   */\n      swap2\n      swap1\n      pop\n      jump\t// out\n        /* \"#utility.yul\":2143:2312   */\n    tag_112:\n        /* \"#utility.yul\":2227:2238   */\n      0x00\n        /* \"#utility.yul\":2261:2267   */\n      dup3\n        /* \"#utility.yul\":2256:2259   */\n      dup3\n        /* \"#utility.yul\":2249:2268   */\n      mstore\n        /* \"#utility.yul\":2301:2305   */\n      0x20\n        /* \"#utility.yul\":2296:2299   */\n      dup3\n        /* \"#utility.yul\":2292:2306   */\n      add\n        /* \"#utility.yul\":2277:2306   */\n      swap1\n      pop\n        /* \"#utility.yul\":2143:2312   */\n      swap3\n      swap2\n      pop\n      pop\n      jump\t// out\n        /* \"#utility.yul\":2318:2625   */\n    tag_113:\n        /* \"#utility.yul\":2386:2387   */\n      0x00\n        /* \"#utility.yul\":2396:2509   */\n    tag_164:\n        /* \"#utility.yul\":2410:2416   */\n      dup4\n        /* \"#utility.yul\":2407:2408   */\n      dup2\n        /* \"#utility.yul\":2404:2417   */\n      lt\n        /* \"#utility.yul\":2396:2509   */\n      iszero\n      tag_166\n      jumpi\n        /* \"#utility.yul\":2495:2496   */\n      dup1\n        /* \"#utility.yul\":2490:2493   */\n      dup3\n        /* \"#utility.yul\":2486:2497   */\n      add\n        /* \"#utility.yul\":2480:2498   */\n      mload\n        /* \"#utility.yul\":2476:2477   */\n      dup2\n        /* \"#utility.yul\":2471:2474   */\n      dup5\n        /* \"#utility.yul\":2467:2478   */\n      add\n        /* \"#utility.yul\":2460:2499   */\n      mstore\n        /* \"#utility.yul\":2432:2434   */\n      0x20\n        /* \"#utility.yul\":2429:2430   */\n      dup2\n        /* \"#utility.yul\":2425:2435   */\n      add\n        /* \"#utility.yul\":2420:2435   */\n      swap1\n      pop\n        /* \"#utility.yul\":2396:2509   */\n      jump(tag_164)\n    tag_166:\n        /* \"#utility.yul\":2527:2533   */\n      dup4\n        /* \"#utility.yul\":2524:2525   */\n      dup2\n        /* \"#utility.yul\":2521:2534   */\n      gt\n        /* \"#utility.yul\":2518:2619   */\n      iszero\n      tag_167\n      jumpi\n        /* \"#utility.yul\":2607:2608   */\n      0x00\n        /* \"#utility.yul\":2598:2604   */\n      dup5\n        /* \"#utility.yul\":2593:2596   */\n      dup5\n        /* \"#utility.yul\":2589:2605   */\n      add\n        /* \"#utility.yul\":2582:2609   */\n      mstore\n        /* \"#utility.yul\":2518:2619   */\n    tag_167:\n        /* \"#utility.yul\":2367:2625   */\n      pop\n        /* \"#utility.yul\":2318:2625   */\n      pop\n      pop\n      pop\n      jump\t// out\n        /* \"#utility.yul\":2631:2733   */\n    tag_114:\n        /* \"#utility.yul\":2672:2678   */\n      0x00\n        /* \"#utility.yul\":2723:2725   */\n      0x1f\n        /* \"#utility.yul\":2719:2726   */\n      not\n        /* \"#utility.yul\":2714:2716   */\n      0x1f\n        /* \"#utility.yul\":2707:2712   */\n      dup4\n        /* \"#utility.yul\":2703:2717   */\n      add\n        /* \"#utility.yul\":2699:2727   */\n      and\n        /* \"#utility.yul\":2689:2727   */\n      swap1\n      pop\n        /* \"#utility.yul\":2631:2733   */\n      swap2\n      swap1\n      pop\n      jump\t// out\n        /* \"#utility.yul\":2739:3103   */\n    tag_115:\n        /* \"#utility.yul\":2827:2830   */\n      0x00\n        /* \"#utility.yul\":2855:2894   */\n      tag_170\n        /* \"#utility.yul\":2888:2893   */\n      dup3\n        /* \"#utility.yul\":2855:2894   */\n      tag_111\n      jump\t// in\n    tag_170:\n        /* \"#utility.yul\":2910:2981   */\n      tag_171\n        /* \"#utility.yul\":2974:2980   */\n      dup2\n        /* \"#utility.yul\":2969:2972   */\n      dup6\n        /* \"#utility.yul\":2910:2981   */\n      tag_112\n      jump\t// in\n    tag_171:\n        /* \"#utility.yul\":2903:2981   */\n      swap4\n      pop\n        /* \"#utility.yul\":2990:3042   */\n      tag_172\n        /* \"#utility.yul\":3035:3041   */\n      dup2\n        /* \"#utility.yul\":3030:3033   */\n      dup6\n        /* \"#utility.yul\":3023:3027   */\n      0x20\n        /* \"#utility.yul\":3016:3021   */\n      dup7\n        /* \"#utility.yul\":3012:3028   */\n      add\n        /* \"#utility.yul\":2990:3042   */\n      tag_113\n      jump\t// in\n    tag_172:\n        /* \"#utility.yul\":3067:3096   */\n      tag_173\n        /* \"#utility.yul\":3089:3095   */\n      dup2\n        /* \"#utility.yul\":3067:3096   */\n      tag_114\n      jump\t// in\n    tag_173:\n        /* \"#utility.yul\":3062:3065   */\n      dup5\n        /* \"#utility.yul\":3058:3097   */\n      add\n        /* \"#utility.yul\":3051:3097   */\n      swap2\n      pop\n        /* \"#utility.yul\":2831:3103   */\n      pop\n        /* \"#utility.yul\":2739:3103   */\n      swap3\n      swap2\n      pop\n      pop\n      jump\t// out\n        /* \"#utility.yul\":3109:3422   */\n    tag_30:\n        /* \"#utility.yul\":3222:3226   */\n      0x00\n        /* \"#utility.yul\":3260:3262   */\n      0x20\n        /* \"#utility.yul\":3249:3258   */\n      dup3\n        /* \"#utility.yul\":3245:3263   */\n      add\n        /* \"#utility.yul\":3237:3263   */\n      swap1\n      pop\n        /* \"#utility.yul\":3309:3318   */\n      dup2\n        /* \"#utility.yul\":3303:3307   */\n      dup2\n        /* \"#utility.yul\":3299:3319   */\n      sub\n        /* \"#utility.yul\":3295:3296   */\n      0x00\n        /* \"#utility.yul\":3284:3293   */\n      dup4\n        /* \"#utility.yul\":3280:3297   */\n      add\n        /* \"#utility.yul\":3273:3320   */\n      mstore\n        /* \"#utility.yul\":3337:3415   */\n      tag_175\n        /* \"#utility.yul\":3410:3414   */\n      dup2\n        /* \"#utility.yul\":3401:3407   */\n      dup5\n        /* \"#utility.yul\":3337:3415   */\n      tag_115\n      jump\t// in\n    tag_175:\n        /* \"#utility.yul\":3329:3415   */\n      swap1\n      pop\n        /* \"#utility.yul\":3109:3422   */\n      swap3\n      swap2\n      pop\n      pop\n      jump\t// out\n        /* \"#utility.yul\":3428:3604   */\n    tag_116:\n        /* \"#utility.yul\":3568:3596   */\n      0x4f6e6c79206f776e65722063616e206163636573732074686973000000000000\n        /* \"#utility.yul\":3564:3565   */\n      0x00\n        /* \"#utility.yul\":3556:3562   */\n      dup3\n        /* \"#utility.yul\":3552:3566   */\n      add\n        /* \"#utility.yul\":3545:3597   */\n      mstore\n        /* \"#utility.yul\":3428:3604   */\n      pop\n      jump\t// out\n        /* \"#utility.yul\":3610:3976   */\n    tag_117:\n        /* \"#utility.yul\":3752:3755   */\n      0x00\n        /* \"#utility.yul\":3773:3840   */\n      tag_178\n        /* \"#utility.yul\":3837:3839   */\n      0x1a\n        /* \"#utility.yul\":3832:3835   */\n      dup4\n        /* \"#utility.yul\":3773:3840   */\n      tag_112\n      jump\t// in\n    tag_178:\n        /* \"#utility.yul\":3766:3840   */\n      swap2\n      pop\n        /* \"#utility.yul\":3849:3942   */\n      tag_179\n        /* \"#utility.yul\":3938:3941   */\n      dup3\n        /* \"#utility.yul\":3849:3942   */\n      tag_116\n      jump\t// in\n    tag_179:\n        /* \"#utility.yul\":3967:3969   */\n      0x20\n        /* \"#utility.yul\":3962:3965   */\n      dup3\n        /* \"#utility.yul\":3958:3970   */\n      add\n        /* \"#utility.yul\":3951:3970   */\n      swap1\n      pop\n        /* \"#utility.yul\":3610:3976   */\n      swap2\n      swap1\n      pop\n      jump\t// out\n        /* \"#utility.yul\":3982:4401   */\n    tag_49:\n        /* \"#utility.yul\":4148:4152   */\n      0x00\n        /* \"#utility.yul\":4186:4188   */\n      0x20\n        /* \"#utility.yul\":4175:4184   */\n      dup3\n        /* \"#utility.yul\":4171:4189   */\n      add\n        /* \"#utility.yul\":4163:4189   */\n      swap1\n      pop\n        /* \"#utility.yul\":4235:4244   */\n      dup2\n        /* \"#utility.yul\":4229:4233   */\n      dup2\n        /* \"#utility.yul\":4225:4245   */\n      sub\n        /* \"#utility.yul\":4221:4222   */\n      0x00\n        /* \"#utility.yul\":4210:4219   */\n      dup4\n        /* \"#utility.yul\":4206:4223   */\n      add\n        /* \"#utility.yul\":4199:4246   */\n      mstore\n        /* \"#utility.yul\":4263:4394   */\n      tag_181\n        /* \"#utility.yul\":4389:4393   */\n      dup2\n        /* \"#utility.yul\":4263:4394   */\n      tag_117\n      jump\t// in\n    tag_181:\n        /* \"#utility.yul\":4255:4394   */\n      swap1\n      pop\n        /* \"#utility.yul\":3982:4401   */\n      swap2\n      swap1\n      pop\n      jump\t// out\n        /* \"#utility.yul\":4407:4589   */\n    tag_118:\n        /* \"#utility.yul\":4547:4581   */\n      0x4164647265737320697320616c72656164792077686974656c69737465642121\n        /* \"#utility.yul\":4543:4544   */\n      0x00\n        /* \"#utility.yul\":4535:4541   */\n      dup3\n        /* \"#utility.yul\":4531:4545   */\n      add\n        /* \"#utility.yul\":4524:4582   */\n      mstore\n        /* \"#utility.yul\":4407:4589   */\n      pop\n      jump\t// out\n        /* \"#utility.yul\":4595:4961   */\n    tag_119:\n        /* \"#utility.yul\":4737:4740   */\n      0x00\n        /* \"#utility.yul\":4758:4825   */\n      tag_184\n        /* \"#utility.yul\":4822:4824   */\n      0x20\n        /* \"#utility.yul\":4817:4820   */\n      dup4\n        /* \"#utility.yul\":4758:4825   */\n      tag_112\n      jump\t// in\n    tag_184:\n        /* \"#utility.yul\":4751:4825   */\n      swap2\n      pop\n        /* \"#utility.yul\":4834:4927   */\n      tag_185\n        /* \"#utility.yul\":4923:4926   */\n      dup3\n        /* \"#utility.yul\":4834:4927   */\n      tag_118\n      jump\t// in\n    tag_185:\n        /* \"#utility.yul\":4952:4954   */\n      0x20\n        /* \"#utility.yul\":4947:4950   */\n      dup3\n        /* \"#utility.yul\":4943:4955   */\n      add\n        /* \"#utility.yul\":4936:4955   */\n      swap1\n      pop\n        /* \"#utility.yul\":4595:4961   */\n      swap2\n      swap1\n      pop\n      jump\t// out\n        /* \"#utility.yul\":4967:5386   */\n    tag_53:\n        /* \"#utility.yul\":5133:5137   */\n      0x00\n        /* \"#utility.yul\":5171:5173   */\n      0x20\n        /* \"#utility.yul\":5160:5169   */\n      dup3\n        /* \"#utility.yul\":5156:5174   */\n      add\n        /* \"#utility.yul\":5148:5174   */\n      swap1\n      pop\n        /* \"#utility.yul\":5220:5229   */\n      dup2\n        /* \"#utility.yul\":5214:5218   */\n      dup2\n        /* \"#utility.yul\":5210:5230   */\n      sub\n        /* \"#utility.yul\":5206:5207   */\n      0x00\n        /* \"#utility.yul\":5195:5204   */\n      dup4\n        /* \"#utility.yul\":5191:5208   */\n      add\n        /* \"#utility.yul\":5184:5231   */\n      mstore\n        /* \"#utility.yul\":5248:5379   */\n      tag_187\n        /* \"#utility.yul\":5374:5378   */\n      dup2\n        /* \"#utility.yul\":5248:5379   */\n      tag_119\n      jump\t// in\n    tag_187:\n        /* \"#utility.yul\":5240:5379   */\n      swap1\n      pop\n        /* \"#utility.yul\":4967:5386   */\n      swap2\n      swap1\n      pop\n      jump\t// out\n        /* \"#utility.yul\":5392:5572   */\n    tag_120:\n        /* \"#utility.yul\":5440:5517   */\n      0x4e487b7100000000000000000000000000000000000000000000000000000000\n        /* \"#utility.yul\":5437:5438   */\n      0x00\n        /* \"#utility.yul\":5430:5518   */\n      mstore\n        /* \"#utility.yul\":5537:5541   */\n      0x22\n        /* \"#utility.yul\":5534:5535   */\n      0x04\n        /* \"#utility.yul\":5527:5542   */\n      mstore\n        /* \"#utility.yul\":5561:5565   */\n      0x24\n        /* \"#utility.yul\":5558:5559   */\n      0x00\n        /* \"#utility.yul\":5551:5566   */\n      revert\n        /* \"#utility.yul\":5578:5898   */\n    tag_56:\n        /* \"#utility.yul\":5622:5628   */\n      0x00\n        /* \"#utility.yul\":5659:5660   */\n      0x02\n        /* \"#utility.yul\":5653:5657   */\n      dup3\n        /* \"#utility.yul\":5649:5661   */\n      div\n        /* \"#utility.yul\":5639:5661   */\n      swap1\n      pop\n        /* \"#utility.yul\":5706:5707   */\n      0x01\n        /* \"#utility.yul\":5700:5704   */\n      dup3\n        /* \"#utility.yul\":5696:5708   */\n      and\n        /* \"#utility.yul\":5727:5745   */\n      dup1\n        /* \"#utility.yul\":5717:5798   */\n      tag_190\n      jumpi\n        /* \"#utility.yul\":5783:5787   */\n      0x7f\n        /* \"#utility.yul\":5775:5781   */\n      dup3\n        /* \"#utility.yul\":5771:5788   */\n      and\n        /* \"#utility.yul\":5761:5788   */\n      swap2\n      pop\n        /* \"#utility.yul\":5717:5798   */\n    tag_190:\n        /* \"#utility.yul\":5845:5847   */\n      0x20\n        /* \"#utility.yul\":5837:5843   */\n      dup3\n        /* \"#utility.yul\":5834:5848   */\n      lt\n        /* \"#utility.yul\":5814:5832   */\n      dup2\n        /* \"#utility.yul\":5811:5849   */\n      sub\n        /* \"#utility.yul\":5808:5892   */\n      tag_191\n      jumpi\n        /* \"#utility.yul\":5864:5882   */\n      tag_192\n      tag_120\n      jump\t// in\n    tag_192:\n        /* \"#utility.yul\":5808:5892   */\n    tag_191:\n        /* \"#utility.yul\":5629:5898   */\n      pop\n        /* \"#utility.yul\":5578:5898   */\n      swap2\n      swap1\n      pop\n      jump\t// out\n        /* \"#utility.yul\":5904:6086   */\n    tag_121:\n        /* \"#utility.yul\":6044:6078   */\n      0x546869732061646472657373206973206e6f742077686974656c69737465642e\n        /* \"#utility.yul\":6040:6041   */\n      0x00\n        /* \"#utility.yul\":6032:6038   */\n      dup3\n        /* \"#utility.yul\":6028:6042   */\n      add\n        /* \"#utility.yul\":6021:6079   */\n      mstore\n        /* \"#utility.yul\":5904:6086   */\n      pop\n      jump\t// out\n        /* \"#utility.yul\":6092:6458   */\n    tag_122:\n        /* \"#utility.yul\":6234:6237   */\n      0x00\n        /* \"#utility.yul\":6255:6322   */\n      tag_195\n        /* \"#utility.yul\":6319:6321   */\n      0x20\n        /* \"#utility.yul\":6314:6317   */\n      dup4\n        /* \"#utility.yul\":6255:6322   */\n      tag_112\n      jump\t// in\n    tag_195:\n        /* \"#utility.yul\":6248:6322   */\n      swap2\n      pop\n        /* \"#utility.yul\":6331:6424   */\n      tag_196\n        /* \"#utility.yul\":6420:6423   */\n      dup3\n        /* \"#utility.yul\":6331:6424   */\n      tag_121\n      jump\t// in\n    tag_196:\n        /* \"#utility.yul\":6449:6451   */\n      0x20\n        /* \"#utility.yul\":6444:6447   */\n      dup3\n        /* \"#utility.yul\":6440:6452   */\n      add\n        /* \"#utility.yul\":6433:6452   */\n      swap1\n      pop\n        /* \"#utility.yul\":6092:6458   */\n      swap2\n      swap1\n      pop\n      jump\t// out\n        /* \"#utility.yul\":6464:6883   */\n    tag_69:\n        /* \"#utility.yul\":6630:6634   */\n      0x00\n        /* \"#utility.yul\":6668:6670   */\n      0x20\n        /* \"#utility.yul\":6657:6666   */\n      dup3\n        /* \"#utility.yul\":6653:6671   */\n      add\n        /* \"#utility.yul\":6645:6671   */\n      swap1\n      pop\n        /* \"#utility.yul\":6717:6726   */\n      dup2\n        /* \"#utility.yul\":6711:6715   */\n      dup2\n        /* \"#utility.yul\":6707:6727   */\n      sub\n        /* \"#utility.yul\":6703:6704   */\n      0x00\n        /* \"#utility.yul\":6692:6701   */\n      dup4\n        /* \"#utility.yul\":6688:6705   */\n      add\n        /* \"#utility.yul\":6681:6728   */\n      mstore\n        /* \"#utility.yul\":6745:6876   */\n      tag_198\n        /* \"#utility.yul\":6871:6875   */\n      dup2\n        /* \"#utility.yul\":6745:6876   */\n      tag_122\n      jump\t// in\n    tag_198:\n        /* \"#utility.yul\":6737:6876   */\n      swap1\n      pop\n        /* \"#utility.yul\":6464:6883   */\n      swap2\n      swap1\n      pop\n      jump\t// out\n        /* \"#utility.yul\":6889:7117   */\n    tag_123:\n        /* \"#utility.yul\":7029:7063   */\n      0x546f6b656e2053616c65206973206f76657220617320616c6c20746f6b656e73\n        /* \"#utility.yul\":7025:7026   */\n      0x00\n        /* \"#utility.yul\":7017:7023   */\n      dup3\n        /* \"#utility.yul\":7013:7027   */\n      add\n        /* \"#utility.yul\":7006:7064   */\n      mstore\n        /* \"#utility.yul\":7098:7109   */\n      0x2061726520736f6c640000000000000000000000000000000000000000000000\n        /* \"#utility.yul\":7093:7095   */\n      0x20\n        /* \"#utility.yul\":7085:7091   */\n      dup3\n        /* \"#utility.yul\":7081:7096   */\n      add\n        /* \"#utility.yul\":7074:7110   */\n      mstore\n        /* \"#utility.yul\":6889:7117   */\n      pop\n      jump\t// out\n        /* \"#utility.yul\":7123:7489   */\n    tag_124:\n        /* \"#utility.yul\":7265:7268   */\n      0x00\n        /* \"#utility.yul\":7286:7353   */\n      tag_201\n        /* \"#utility.yul\":7350:7352   */\n      0x29\n        /* \"#utility.yul\":7345:7348   */\n      dup4\n        /* \"#utility.yul\":7286:7353   */\n      tag_112\n      jump\t// in\n    tag_201:\n        /* \"#utility.yul\":7279:7353   */\n      swap2\n      pop\n        /* \"#utility.yul\":7362:7455   */\n      tag_202\n        /* \"#utility.yul\":7451:7454   */\n      dup3\n        /* \"#utility.yul\":7362:7455   */\n      tag_123\n      jump\t// in\n    tag_202:\n        /* \"#utility.yul\":7480:7482   */\n      0x40\n        /* \"#utility.yul\":7475:7478   */\n      dup3\n        /* \"#utility.yul\":7471:7483   */\n      add\n        /* \"#utility.yul\":7464:7483   */\n      swap1\n      pop\n        /* \"#utility.yul\":7123:7489   */\n      swap2\n      swap1\n      pop\n      jump\t// out\n        /* \"#utility.yul\":7495:7914   */\n    tag_73:\n        /* \"#utility.yul\":7661:7665   */\n      0x00\n        /* \"#utility.yul\":7699:7701   */\n      0x20\n        /* \"#utility.yul\":7688:7697   */\n      dup3\n        /* \"#utility.yul\":7684:7702   */\n      add\n        /* \"#utility.yul\":7676:7702   */\n      swap1\n      pop\n        /* \"#utility.yul\":7748:7757   */\n      dup2\n        /* \"#utility.yul\":7742:7746   */\n      dup2\n        /* \"#utility.yul\":7738:7758   */\n      sub\n        /* \"#utility.yul\":7734:7735   */\n      0x00\n        /* \"#utility.yul\":7723:7732   */\n      dup4\n        /* \"#utility.yul\":7719:7736   */\n      add\n        /* \"#utility.yul\":7712:7759   */\n      mstore\n        /* \"#utility.yul\":7776:7907   */\n      tag_204\n        /* \"#utility.yul\":7902:7906   */\n      dup2\n        /* \"#utility.yul\":7776:7907   */\n      tag_124\n      jump\t// in\n    tag_204:\n        /* \"#utility.yul\":7768:7907   */\n      swap1\n      pop\n        /* \"#utility.yul\":7495:7914   */\n      swap2\n      swap1\n      pop\n      jump\t// out\n        /* \"#utility.yul\":7920:8100   */\n    tag_125:\n        /* \"#utility.yul\":7968:8045   */\n      0x4e487b7100000000000000000000000000000000000000000000000000000000\n        /* \"#utility.yul\":7965:7966   */\n      0x00\n        /* \"#utility.yul\":7958:8046   */\n      mstore\n        /* \"#utility.yul\":8065:8069   */\n      0x12\n        /* \"#utility.yul\":8062:8063   */\n      0x04\n        /* \"#utility.yul\":8055:8070   */\n      mstore\n        /* \"#utility.yul\":8089:8093   */\n      0x24\n        /* \"#utility.yul\":8086:8087   */\n      0x00\n        /* \"#utility.yul\":8079:8094   */\n      revert\n        /* \"#utility.yul\":8106:8286   */\n    tag_126:\n        /* \"#utility.yul\":8154:8231   */\n      0x4e487b7100000000000000000000000000000000000000000000000000000000\n        /* \"#utility.yul\":8151:8152   */\n      0x00\n        /* \"#utility.yul\":8144:8232   */\n      mstore\n        /* \"#utility.yul\":8251:8255   */\n      0x11\n        /* \"#utility.yul\":8248:8249   */\n      0x04\n        /* \"#utility.yul\":8241:8256   */\n      mstore\n        /* \"#utility.yul\":8275:8279   */\n      0x24\n        /* \"#utility.yul\":8272:8273   */\n      0x00\n        /* \"#utility.yul\":8265:8280   */\n      revert\n        /* \"#utility.yul\":8292:8477   */\n    tag_76:\n        /* \"#utility.yul\":8332:8333   */\n      0x00\n        /* \"#utility.yul\":8349:8369   */\n      tag_208\n        /* \"#utility.yul\":8367:8368   */\n      dup3\n        /* \"#utility.yul\":8349:8369   */\n      tag_109\n      jump\t// in\n    tag_208:\n        /* \"#utility.yul\":8344:8369   */\n      swap2\n      pop\n        /* \"#utility.yul\":8383:8403   */\n      tag_209\n        /* \"#utility.yul\":8401:8402   */\n      dup4\n        /* \"#utility.yul\":8383:8403   */\n      tag_109\n      jump\t// in\n    tag_209:\n        /* \"#utility.yul\":8378:8403   */\n      swap3\n      pop\n        /* \"#utility.yul\":8422:8423   */\n      dup3\n        /* \"#utility.yul\":8412:8447   */\n      tag_210\n      jumpi\n        /* \"#utility.yul\":8427:8445   */\n      tag_211\n      tag_125\n      jump\t// in\n    tag_211:\n        /* \"#utility.yul\":8412:8447   */\n    tag_210:\n        /* \"#utility.yul\":8469:8470   */\n      dup3\n        /* \"#utility.yul\":8466:8467   */\n      dup3\n        /* \"#utility.yul\":8462:8471   */\n      div\n        /* \"#utility.yul\":8457:8471   */\n      swap1\n      pop\n        /* \"#utility.yul\":8292:8477   */\n      swap3\n      swap2\n      pop\n      pop\n      jump\t// out\n        /* \"#utility.yul\":8483:8831   */\n    tag_78:\n        /* \"#utility.yul\":8523:8530   */\n      0x00\n        /* \"#utility.yul\":8546:8566   */\n      tag_213\n        /* \"#utility.yul\":8564:8565   */\n      dup3\n        /* \"#utility.yul\":8546:8566   */\n      tag_109\n      jump\t// in\n    tag_213:\n        /* \"#utility.yul\":8541:8566   */\n      swap2\n      pop\n        /* \"#utility.yul\":8580:8600   */\n      tag_214\n        /* \"#utility.yul\":8598:8599   */\n      dup4\n        /* \"#utility.yul\":8580:8600   */\n      tag_109\n      jump\t// in\n    tag_214:\n        /* \"#utility.yul\":8575:8600   */\n      swap3\n      pop\n        /* \"#utility.yul\":8768:8769   */\n      dup2\n        /* \"#utility.yul\":8700:8766   */\n      0xffffffffffffffffffffffffffffffffffffffffffffffffffffffffffffffff\n        /* \"#utility.yul\":8696:8770   */\n      div\n        /* \"#utility.yul\":8693:8694   */\n      dup4\n        /* \"#utility.yul\":8690:8771   */\n      gt\n        /* \"#utility.yul\":8685:8686   */\n      dup3\n        /* \"#utility.yul\":8678:8687   */\n      iszero\n        /* \"#utility.yul\":8671:8688   */\n      iszero\n        /* \"#utility.yul\":8667:8772   */\n      and\n        /* \"#utility.yul\":8664:8795   */\n      iszero\n      tag_215\n      jumpi\n        /* \"#utility.yul\":8775:8793   */\n      tag_216\n      tag_126\n      jump\t// in\n    tag_216:\n        /* \"#utility.yul\":8664:8795   */\n    tag_215:\n        /* \"#utility.yul\":8823:8824   */\n      dup3\n        /* \"#utility.yul\":8820:8821   */\n      dup3\n        /* \"#utility.yul\":8816:8825   */\n      mul\n        /* \"#utility.yul\":8805:8825   */\n      swap1\n      pop\n        /* \"#utility.yul\":8483:8831   */\n      swap3\n      swap2\n      pop\n      pop\n      jump\t// out\n        /* \"#utility.yul\":8837:8935   */\n    tag_127:\n        /* \"#utility.yul\":8888:8894   */\n      0x00\n        /* \"#utility.yul\":8922:8927   */\n      dup2\n        /* \"#utility.yul\":8916:8928   */\n      mload\n        /* \"#utility.yul\":8906:8928   */\n      swap1\n      pop\n        /* \"#utility.yul\":8837:8935   */\n      swap2\n      swap1\n      pop\n      jump\t// out\n        /* \"#utility.yul\":8941:9088   */\n    tag_128:\n        /* \"#utility.yul\":9042:9053   */\n      0x00\n        /* \"#utility.yul\":9079:9082   */\n      dup2\n        /* \"#utility.yul\":9064:9082   */\n      swap1\n      pop\n        /* \"#utility.yul\":8941:9088   */\n      swap3\n      swap2\n      pop\n      pop\n      jump\t// out\n        /* \"#utility.yul\":9094:9467   */\n    tag_129:\n        /* \"#utility.yul\":9198:9201   */\n      0x00\n        /* \"#utility.yul\":9226:9264   */\n      tag_220\n        /* \"#utility.yul\":9258:9263   */\n      dup3\n        /* \"#utility.yul\":9226:9264   */\n      tag_127\n      jump\t// in\n    tag_220:\n        /* \"#utility.yul\":9280:9368   */\n      tag_221\n        /* \"#utility.yul\":9361:9367   */\n      dup2\n        /* \"#utility.yul\":9356:9359   */\n      dup6\n        /* \"#utility.yul\":9280:9368   */\n      tag_128\n      jump\t// in\n    tag_221:\n        /* \"#utility.yul\":9273:9368   */\n      swap4\n      pop\n        /* \"#utility.yul\":9377:9429   */\n      tag_222\n        /* \"#utility.yul\":9422:9428   */\n      dup2\n        /* \"#utility.yul\":9417:9420   */\n      dup6\n        /* \"#utility.yul\":9410:9414   */\n      0x20\n        /* \"#utility.yul\":9403:9408   */\n      dup7\n        /* \"#utility.yul\":9399:9415   */\n      add\n        /* \"#utility.yul\":9377:9429   */\n      tag_113\n      jump\t// in\n    tag_222:\n        /* \"#utility.yul\":9454:9460   */\n      dup1\n        /* \"#utility.yul\":9449:9452   */\n      dup5\n        /* \"#utility.yul\":9445:9461   */\n      add\n        /* \"#utility.yul\":9438:9461   */\n      swap2\n      pop\n        /* \"#utility.yul\":9202:9467   */\n      pop\n        /* \"#utility.yul\":9094:9467   */\n      swap3\n      swap2\n      pop\n      pop\n      jump\t// out\n        /* \"#utility.yul\":9473:9900   */\n    tag_80:\n        /* \"#utility.yul\":9649:9652   */\n      0x00\n        /* \"#utility.yul\":9671:9764   */\n      tag_224\n        /* \"#utility.yul\":9760:9763   */\n      dup3\n        /* \"#utility.yul\":9751:9757   */\n      dup6\n        /* \"#utility.yul\":9671:9764   */\n      tag_129\n      jump\t// in\n    tag_224:\n        /* \"#utility.yul\":9664:9764   */\n      swap2\n      pop\n        /* \"#utility.yul\":9781:9874   */\n      tag_225\n        /* \"#utility.yul\":9870:9873   */\n      dup3\n        /* \"#utility.yul\":9861:9867   */\n      dup5\n        /* \"#utility.yul\":9781:9874   */\n      tag_129\n      jump\t// in\n    tag_225:\n        /* \"#utility.yul\":9774:9874   */\n      swap2\n      pop\n        /* \"#utility.yul\":9891:9894   */\n      dup2\n        /* \"#utility.yul\":9884:9894   */\n      swap1\n      pop\n        /* \"#utility.yul\":9473:9900   */\n      swap4\n      swap3\n      pop\n      pop\n      pop\n      jump\t// out\n        /* \"#utility.yul\":9906:10101   */\n    tag_130:\n        /* \"#utility.yul\":10075:10094   */\n      0x596f752068617665206272656163686564000000000000000000000000000000\n        /* \"#utility.yul\":10070:10073   */\n      dup2\n        /* \"#utility.yul\":10063:10095   */\n      mstore\n        /* \"#utility.yul\":9906:10101   */\n      pop\n      jump\t// out\n        /* \"#utility.yul\":10107:10310   */\n    tag_131:\n        /* \"#utility.yul\":10276:10303   */\n      0x204d617820546f6b656e205075726368617365206c696d697400000000000000\n        /* \"#utility.yul\":10271:10274   */\n      dup2\n        /* \"#utility.yul\":10264:10304   */\n      mstore\n        /* \"#utility.yul\":10107:10310   */\n      pop\n      jump\t// out\n        /* \"#utility.yul\":10316:10965   */\n    tag_84:\n        /* \"#utility.yul\":10582:10585   */\n      0x00\n        /* \"#utility.yul\":10597:10735   */\n      tag_229\n        /* \"#utility.yul\":10731:10734   */\n      dup3\n        /* \"#utility.yul\":10597:10735   */\n      tag_130\n      jump\t// in\n    tag_229:\n        /* \"#utility.yul\":10760:10762   */\n      0x11\n        /* \"#utility.yul\":10755:10758   */\n      dup3\n        /* \"#utility.yul\":10751:10763   */\n      add\n        /* \"#utility.yul\":10744:10763   */\n      swap2\n      pop\n        /* \"#utility.yul\":10773:10911   */\n      tag_230\n        /* \"#utility.yul\":10907:10910   */\n      dup3\n        /* \"#utility.yul\":10773:10911   */\n      tag_131\n      jump\t// in\n    tag_230:\n        /* \"#utility.yul\":10936:10938   */\n      0x19\n        /* \"#utility.yul\":10931:10934   */\n      dup3\n        /* \"#utility.yul\":10927:10939   */\n      add\n        /* \"#utility.yul\":10920:10939   */\n      swap2\n      pop\n        /* \"#utility.yul\":10956:10959   */\n      dup2\n        /* \"#utility.yul\":10949:10959   */\n      swap1\n      pop\n        /* \"#utility.yul\":10316:10965   */\n      swap2\n      swap1\n      pop\n      jump\t// out\n        /* \"#utility.yul\":10971:11149   */\n    tag_132:\n        /* \"#utility.yul\":11111:11141   */\n      0x4e6f7420656e6f75676820746f6b656e20746f20707572636861736500000000\n        /* \"#utility.yul\":11107:11108   */\n      0x00\n        /* \"#utility.yul\":11099:11105   */\n      dup3\n        /* \"#utility.yul\":11095:11109   */\n      add\n        /* \"#utility.yul\":11088:11142   */\n      mstore\n        /* \"#utility.yul\":10971:11149   */\n      pop\n      jump\t// out\n        /* \"#utility.yul\":11155:11521   */\n    tag_133:\n        /* \"#utility.yul\":11297:11300   */\n      0x00\n        /* \"#utility.yul\":11318:11385   */\n      tag_233\n        /* \"#utility.yul\":11382:11384   */\n      0x1c\n        /* \"#utility.yul\":11377:11380   */\n      dup4\n        /* \"#utility.yul\":11318:11385   */\n      tag_112\n      jump\t// in\n    tag_233:\n        /* \"#utility.yul\":11311:11385   */\n      swap2\n      pop\n        /* \"#utility.yul\":11394:11487   */\n      tag_234\n        /* \"#utility.yul\":11483:11486   */\n      dup3\n        /* \"#utility.yul\":11394:11487   */\n      tag_132\n      jump\t// in\n    tag_234:\n        /* \"#utility.yul\":11512:11514   */\n      0x20\n        /* \"#utility.yul\":11507:11510   */\n      dup3\n        /* \"#utility.yul\":11503:11515   */\n      add\n        /* \"#utility.yul\":11496:11515   */\n      swap1\n      pop\n        /* \"#utility.yul\":11155:11521   */\n      swap2\n      swap1\n      pop\n      jump\t// out\n        /* \"#utility.yul\":11527:11946   */\n    tag_89:\n        /* \"#utility.yul\":11693:11697   */\n      0x00\n        /* \"#utility.yul\":11731:11733   */\n      0x20\n        /* \"#utility.yul\":11720:11729   */\n      dup3\n        /* \"#utility.yul\":11716:11734   */\n      add\n        /* \"#utility.yul\":11708:11734   */\n      swap1\n      pop\n        /* \"#utility.yul\":11780:11789   */\n      dup2\n        /* \"#utility.yul\":11774:11778   */\n      dup2\n        /* \"#utility.yul\":11770:11790   */\n      sub\n        /* \"#utility.yul\":11766:11767   */\n      0x00\n        /* \"#utility.yul\":11755:11764   */\n      dup4\n        /* \"#utility.yul\":11751:11768   */\n      add\n        /* \"#utility.yul\":11744:11791   */\n      mstore\n        /* \"#utility.yul\":11808:11939   */\n      tag_236\n        /* \"#utility.yul\":11934:11938   */\n      dup2\n        /* \"#utility.yul\":11808:11939   */\n      tag_133\n      jump\t// in\n    tag_236:\n        /* \"#utility.yul\":11800:11939   */\n      swap1\n      pop\n        /* \"#utility.yul\":11527:11946   */\n      swap2\n      swap1\n      pop\n      jump\t// out\n        /* \"#utility.yul\":11952:12257   */\n    tag_91:\n        /* \"#utility.yul\":11992:11995   */\n      0x00\n        /* \"#utility.yul\":12011:12031   */\n      tag_238\n        /* \"#utility.yul\":12029:12030   */\n      dup3\n        /* \"#utility.yul\":12011:12031   */\n      tag_109\n      jump\t// in\n    tag_238:\n        /* \"#utility.yul\":12006:12031   */\n      swap2\n      pop\n        /* \"#utility.yul\":12045:12065   */\n      tag_239\n        /* \"#utility.yul\":12063:12064   */\n      dup4\n        /* \"#utility.yul\":12045:12065   */\n      tag_109\n      jump\t// in\n    tag_239:\n        /* \"#utility.yul\":12040:12065   */\n      swap3\n      pop\n        /* \"#utility.yul\":12199:12200   */\n      dup3\n        /* \"#utility.yul\":12131:12197   */\n      0xffffffffffffffffffffffffffffffffffffffffffffffffffffffffffffffff\n        /* \"#utility.yul\":12127:12201   */\n      sub\n        /* \"#utility.yul\":12124:12125   */\n      dup3\n        /* \"#utility.yul\":12121:12202   */\n      gt\n        /* \"#utility.yul\":12118:12225   */\n      iszero\n      tag_240\n      jumpi\n        /* \"#utility.yul\":12205:12223   */\n      tag_241\n      tag_126\n      jump\t// in\n    tag_241:\n        /* \"#utility.yul\":12118:12225   */\n    tag_240:\n        /* \"#utility.yul\":12249:12250   */\n      dup3\n        /* \"#utility.yul\":12246:12247   */\n      dup3\n        /* \"#utility.yul\":12242:12251   */\n      add\n        /* \"#utility.yul\":12235:12251   */\n      swap1\n      pop\n        /* \"#utility.yul\":11952:12257   */\n      swap3\n      swap2\n      pop\n      pop\n      jump\t// out\n        /* \"#utility.yul\":12263:12454   */\n    tag_93:\n        /* \"#utility.yul\":12303:12307   */\n      0x00\n        /* \"#utility.yul\":12323:12343   */\n      tag_243\n        /* \"#utility.yul\":12341:12342   */\n      dup3\n        /* \"#utility.yul\":12323:12343   */\n      tag_109\n      jump\t// in\n    tag_243:\n        /* \"#utility.yul\":12318:12343   */\n      swap2\n      pop\n        /* \"#utility.yul\":12357:12377   */\n      tag_244\n        /* \"#utility.yul\":12375:12376   */\n      dup4\n        /* \"#utility.yul\":12357:12377   */\n      tag_109\n      jump\t// in\n    tag_244:\n        /* \"#utility.yul\":12352:12377   */\n      swap3\n      pop\n        /* \"#utility.yul\":12396:12397   */\n      dup3\n        /* \"#utility.yul\":12393:12394   */\n      dup3\n        /* \"#utility.yul\":12390:12398   */\n      lt\n        /* \"#utility.yul\":12387:12421   */\n      iszero\n      tag_245\n      jumpi\n        /* \"#utility.yul\":12401:12419   */\n      tag_246\n      tag_126\n      jump\t// in\n    tag_246:\n        /* \"#utility.yul\":12387:12421   */\n    tag_245:\n        /* \"#utility.yul\":12446:12447   */\n      dup3\n        /* \"#utility.yul\":12443:12444   */\n      dup3\n        /* \"#utility.yul\":12439:12448   */\n      sub\n        /* \"#utility.yul\":12431:12448   */\n      swap1\n      pop\n        /* \"#utility.yul\":12263:12454   */\n      swap3\n      swap2\n      pop\n      pop\n      jump\t// out\n        /* \"#utility.yul\":12460:12578   */\n    tag_134:\n        /* \"#utility.yul\":12547:12571   */\n      tag_248\n        /* \"#utility.yul\":12565:12570   */\n      dup2\n        /* \"#utility.yul\":12547:12571   */\n      tag_106\n      jump\t// in\n    tag_248:\n        /* \"#utility.yul\":12542:12545   */\n      dup3\n        /* \"#utility.yul\":12535:12572   */\n      mstore\n        /* \"#utility.yul\":12460:12578   */\n      pop\n      pop\n      jump\t// out\n        /* \"#utility.yul\":12584:12916   */\n    tag_97:\n        /* \"#utility.yul\":12705:12709   */\n      0x00\n        /* \"#utility.yul\":12743:12745   */\n      0x40\n        /* \"#utility.yul\":12732:12741   */\n      dup3\n        /* \"#utility.yul\":12728:12746   */\n      add\n        /* \"#utility.yul\":12720:12746   */\n      swap1\n      pop\n        /* \"#utility.yul\":12756:12827   */\n      tag_250\n        /* \"#utility.yul\":12824:12825   */\n      0x00\n        /* \"#utility.yul\":12813:12822   */\n      dup4\n        /* \"#utility.yul\":12809:12826   */\n      add\n        /* \"#utility.yul\":12800:12806   */\n      dup6\n        /* \"#utility.yul\":12756:12827   */\n      tag_134\n      jump\t// in\n    tag_250:\n        /* \"#utility.yul\":12837:12909   */\n      tag_251\n        /* \"#utility.yul\":12905:12907   */\n      0x20\n        /* \"#utility.yul\":12894:12903   */\n      dup4\n        /* \"#utility.yul\":12890:12908   */\n      add\n        /* \"#utility.yul\":12881:12887   */\n      dup5\n        /* \"#utility.yul\":12837:12909   */\n      tag_110\n      jump\t// in\n    tag_251:\n        /* \"#utility.yul\":12584:12916   */\n      swap4\n      swap3\n      pop\n      pop\n      pop\n      jump\t// out\n\n    auxdata: 0xa2646970667358221220e25f015be3d328095a956122a128567d93dca79217855e416b6149c1d53826da64736f6c634300080e0033\n}\n","bytecode":{"linkReferences":{},"object":"610120604052600080553480156200001657600080fd5b50604051620014f5380380620014f583398181016040528101906200003c919062000374565b33600360006101000a81548173ffffffffffffffffffffffffffffffffffffffff021916908373ffffffffffffffffffffffffffffffffffffffff160217905550866001908051906020019062000095929190620000ec565b508560029080519060200190620000ae929190620000ec565b5084608081815250508360c08181525050836000819055508260a081815250508160e0818152505080610100818152505050505050505050620004c9565b828054620000fa9062000494565b90600052602060002090601f0160209004810192826200011e57600085556200016a565b82601f106200013957805160ff19168380011785556200016a565b828001600101855582156200016a579182015b82811115620001695782518255916020019190600101906200014c565b5b5090506200017991906200017d565b5090565b5b80821115620001985760008160009055506001016200017e565b5090565b6000604051905090565b600080fd5b600080fd5b600080fd5b600080fd5b6000601f19601f8301169050919050565b7f4e487b7100000000000000000000000000000000000000000000000000000000600052604160045260246000fd5b6200020582620001ba565b810181811067ffffffffffffffff82111715620002275762000226620001cb565b5b80604052505050565b60006200023c6200019c565b90506200024a8282620001fa565b919050565b600067ffffffffffffffff8211156200026d576200026c620001cb565b5b6200027882620001ba565b9050602081019050919050565b60005b83811015620002a557808201518184015260208101905062000288565b83811115620002b5576000848401525b50505050565b6000620002d2620002cc846200024f565b62000230565b905082815260208101848484011115620002f157620002f0620001b5565b5b620002fe84828562000285565b509392505050565b600082601f8301126200031e576200031d620001b0565b5b815162000330848260208601620002bb565b91505092915050565b6000819050919050565b6200034e8162000339565b81146200035a57600080fd5b50565b6000815190506200036e8162000343565b92915050565b600080600080600080600060e0888a031215620003965762000395620001a6565b5b600088015167ffffffffffffffff811115620003b757620003b6620001ab565b5b620003c58a828b0162000306565b975050602088015167ffffffffffffffff811115620003e957620003e8620001ab565b5b620003f78a828b0162000306565b96505060406200040a8a828b016200035d565b95505060606200041d8a828b016200035d565b9450506080620004308a828b016200035d565b93505060a0620004438a828b016200035d565b92505060c0620004568a828b016200035d565b91505092959891949750929550565b7f4e487b7100000000000000000000000000000000000000000000000000000000600052602260045260246000fd5b60006002820490506001821680620004ad57607f821691505b602082108103620004c357620004c262000465565b5b50919050565b60805160a05160c05160e05161010051610fed6200050860003960006106ad015260006105bb015260005050600061057a015260005050610fed6000f3fe60806040526004361061007b5760003560e01c80637b61c3201161004e5780637b61c3201461012a578063a482171914610155578063cb2822531461015f578063ea933b9d1461018a5761007b565b8063255c3792146100805780634a4c560d146100ab57806351999b5c146100d45780636c02a931146100ff575b600080fd5b34801561008c57600080fd5b506100956101b5565b6040516100a291906108f1565b60405180910390f35b3480156100b757600080fd5b506100d260048036038101906100cd919061096f565b610209565b005b3480156100e057600080fd5b506100e9610381565b6040516100f691906109b5565b60405180910390f35b34801561010b57600080fd5b5061011461038a565b6040516101219190610a69565b60405180910390f35b34801561013657600080fd5b5061013f610418565b60405161014c9190610a69565b60405180910390f35b61015d6104a6565b005b34801561016b57600080fd5b50610174610887565b60405161018191906109b5565b60405180910390f35b34801561019657600080fd5b5061019f61088f565b6040516101ac91906109b5565b60405180910390f35b6000600560003373ffffffffffffffffffffffffffffffffffffffff1673ffffffffffffffffffffffffffffffffffffffff16815260200190815260200160002060009054906101000a900460ff16905090565b600360009054906101000a900473ffffffffffffffffffffffffffffffffffffffff1673ffffffffffffffffffffffffffffffffffffffff163373ffffffffffffffffffffffffffffffffffffffff1614610299576040517f08c379a000000000000000000000000000000000000000000000000000000000815260040161029090610ad7565b60405180910390fd5b600560008273ffffffffffffffffffffffffffffffffffffffff1673ffffffffffffffffffffffffffffffffffffffff16815260200190815260200160002060009054906101000a900460ff1615610326576040517f08c379a000000000000000000000000000000000000000000000000000000000815260040161031d90610b43565b60405180910390fd5b6001600560008373ffffffffffffffffffffffffffffffffffffffff1673ffffffffffffffffffffffffffffffffffffffff16815260200190815260200160002060006101000a81548160ff02191690831515021790555050565b60008054905090565b6001805461039790610b92565b80601f01602080910402602001604051908101604052809291908181526020018280546103c390610b92565b80156104105780601f106103e557610100808354040283529160200191610410565b820191906000526020600020905b8154815290600101906020018083116103f357829003601f168201915b505050505081565b6002805461042590610b92565b80601f016020809104026020016040519081016040528092919081815260200182805461045190610b92565b801561049e5780601f106104735761010080835404028352916020019161049e565b820191906000526020600020905b81548152906001019060200180831161048157829003601f168201915b505050505081565b600560003373ffffffffffffffffffffffffffffffffffffffff1673ffffffffffffffffffffffffffffffffffffffff16815260200190815260200160002060009054906101000a900460ff16610532576040517f08c379a000000000000000000000000000000000000000000000000000000000815260040161052990610c0f565b60405180910390fd5b6000805411610576576040517f08c379a000000000000000000000000000000000000000000000000000000000815260040161056d90610ca1565b60405180910390fd5b60007f0000000000000000000000000000000000000000000000000000000000000000670de0b6b3a7640000346105ad9190610d1f565b6105b79190610d50565b90507f00000000000000000000000000000000000000000000000000000000000000008110156040518060400160405280601181526020017f596f7520686176652062726561636865640000000000000000000000000000008152506040518060400160405280601981526020017f204d696e20546f6b656e205075726368617365206c696d69740000000000000081525060405160200161065a929190610df1565b604051602081830303815290604052906106aa576040517f08c379a00000000000000000000000000000000000000000000000000000000081526004016106a19190610a69565b60405180910390fd5b507f00000000000000000000000000000000000000000000000000000000000000008111156040516020016106de90610e61565b6040516020818303038152906040529061072e576040517f08c379a00000000000000000000000000000000000000000000000000000000081526004016107259190610a69565b60405180910390fd5b50806000541015610774576040517f08c379a000000000000000000000000000000000000000000000000000000000815260040161076b90610ed5565b60405180910390fd5b80600460003373ffffffffffffffffffffffffffffffffffffffff1673ffffffffffffffffffffffffffffffffffffffff16815260200190815260200160002060008282546107c39190610ef5565b92505081905550806000808282546107db9190610f4b565b92505081905550600360009054906101000a900473ffffffffffffffffffffffffffffffffffffffff1673ffffffffffffffffffffffffffffffffffffffff166108fc349081150290604051600060405180830381858888f1935050505015801561084a573d6000803e3d6000fd5b507fa512fb2532ca8587f236380171326ebb69670e86a2ba0c4412a3fcca4c3ada9b338260405161087c929190610f8e565b60405180910390a150565b600047905090565b6000600460003273ffffffffffffffffffffffffffffffffffffffff1673ffffffffffffffffffffffffffffffffffffffff16815260200190815260200160002054905090565b60008115159050919050565b6108eb816108d6565b82525050565b600060208201905061090660008301846108e2565b92915050565b600080fd5b600073ffffffffffffffffffffffffffffffffffffffff82169050919050565b600061093c82610911565b9050919050565b61094c81610931565b811461095757600080fd5b50565b60008135905061096981610943565b92915050565b6000602082840312156109855761098461090c565b5b60006109938482850161095a565b91505092915050565b6000819050919050565b6109af8161099c565b82525050565b60006020820190506109ca60008301846109a6565b92915050565b600081519050919050565b600082825260208201905092915050565b60005b83811015610a0a5780820151818401526020810190506109ef565b83811115610a19576000848401525b50505050565b6000601f19601f8301169050919050565b6000610a3b826109d0565b610a4581856109db565b9350610a558185602086016109ec565b610a5e81610a1f565b840191505092915050565b60006020820190508181036000830152610a838184610a30565b905092915050565b7f4f6e6c79206f776e65722063616e206163636573732074686973000000000000600082015250565b6000610ac1601a836109db565b9150610acc82610a8b565b602082019050919050565b60006020820190508181036000830152610af081610ab4565b9050919050565b7f4164647265737320697320616c72656164792077686974656c69737465642121600082015250565b6000610b2d6020836109db565b9150610b3882610af7565b602082019050919050565b60006020820190508181036000830152610b5c81610b20565b9050919050565b7f4e487b7100000000000000000000000000000000000000000000000000000000600052602260045260246000fd5b60006002820490506001821680610baa57607f821691505b602082108103610bbd57610bbc610b63565b5b50919050565b7f546869732061646472657373206973206e6f742077686974656c69737465642e600082015250565b6000610bf96020836109db565b9150610c0482610bc3565b602082019050919050565b60006020820190508181036000830152610c2881610bec565b9050919050565b7f546f6b656e2053616c65206973206f76657220617320616c6c20746f6b656e7360008201527f2061726520736f6c640000000000000000000000000000000000000000000000602082015250565b6000610c8b6029836109db565b9150610c9682610c2f565b604082019050919050565b60006020820190508181036000830152610cba81610c7e565b9050919050565b7f4e487b7100000000000000000000000000000000000000000000000000000000600052601260045260246000fd5b7f4e487b7100000000000000000000000000000000000000000000000000000000600052601160045260246000fd5b6000610d2a8261099c565b9150610d358361099c565b925082610d4557610d44610cc1565b5b828204905092915050565b6000610d5b8261099c565b9150610d668361099c565b9250817fffffffffffffffffffffffffffffffffffffffffffffffffffffffffffffffff0483118215151615610d9f57610d9e610cf0565b5b828202905092915050565b600081519050919050565b600081905092915050565b6000610dcb82610daa565b610dd58185610db5565b9350610de58185602086016109ec565b80840191505092915050565b6000610dfd8285610dc0565b9150610e098284610dc0565b91508190509392505050565b7f596f752068617665206272656163686564000000000000000000000000000000815250565b7f204d617820546f6b656e205075726368617365206c696d697400000000000000815250565b6000610e6c82610e15565b601182019150610e7b82610e3b565b601982019150819050919050565b7f4e6f7420656e6f75676820746f6b656e20746f20707572636861736500000000600082015250565b6000610ebf601c836109db565b9150610eca82610e89565b602082019050919050565b60006020820190508181036000830152610eee81610eb2565b9050919050565b6000610f008261099c565b9150610f0b8361099c565b9250827fffffffffffffffffffffffffffffffffffffffffffffffffffffffffffffffff03821115610f4057610f3f610cf0565b5b828201905092915050565b6000610f568261099c565b9150610f618361099c565b925082821015610f7457610f73610cf0565b5b828203905092915050565b610f8881610931565b82525050565b6000604082019050610fa36000830185610f7f565b610fb060208301846109a6565b939250505056fea2646970667358221220e25f015be3d328095a956122a128567d93dca79217855e416b6149c1d53826da64736f6c634300080e0033","opcodes":"PUSH2 0x120 PUSH1 0x40 MSTORE PUSH1 0x0 DUP1 SSTORE CALLVALUE DUP1 ISZERO PUSH3 0x16 JUMPI PUSH1 0x0 DUP1 REVERT JUMPDEST POP PUSH1 0x40 MLOAD PUSH3 0x14F5 CODESIZE SUB DUP1 PUSH3 0x14F5 DUP4 CODECOPY DUP2 DUP2 ADD PUSH1 0x40 MSTORE DUP2 ADD SWAP1 PUSH3 0x3C SWAP2 SWAP1 PUSH3 0x374 JUMP JUMPDEST CALLER PUSH1 0x3 PUSH1 0x0 PUSH2 0x100 EXP DUP2 SLOAD DUP2 PUSH20 0xFFFFFFFFFFFFFFFFFFFFFFFFFFFFFFFFFFFFFFFF MUL NOT AND SWAP1 DUP4 PUSH20 0xFFFFFFFFFFFFFFFFFFFFFFFFFFFFFFFFFFFFFFFF AND MUL OR SWAP1 SSTORE POP DUP7 PUSH1 0x1 SWAP1 DUP1 MLOAD SWAP1 PUSH1 0x20 ADD SWAP1 PUSH3 0x95 SWAP3 SWAP2 SWAP1 PUSH3 0xEC JUMP JUMPDEST POP DUP6 PUSH1 0x2 SWAP1 DUP1 MLOAD SWAP1 PUSH1 0x20 ADD SWAP1 PUSH3 0xAE SWAP3 SWAP2 SWAP1 PUSH3 0xEC JUMP JUMPDEST POP DUP5 PUSH1 0x80 DUP2 DUP2 MSTORE POP POP DUP4 PUSH1 0xC0 DUP2 DUP2 MSTORE POP POP DUP4 PUSH1 0x0 DUP2 SWAP1 SSTORE POP DUP3 PUSH1 0xA0 DUP2 DUP2 MSTORE POP POP DUP2 PUSH1 0xE0 DUP2 DUP2 MSTORE POP POP DUP1 PUSH2 0x100 DUP2 DUP2 MSTORE POP POP POP POP POP POP POP POP POP PUSH3 0x4C9 JUMP JUMPDEST DUP3 DUP1 SLOAD PUSH3 0xFA SWAP1 PUSH3 0x494 JUMP JUMPDEST SWAP1 PUSH1 0x0 MSTORE PUSH1 0x20 PUSH1 0x0 KECCAK256 SWAP1 PUSH1 0x1F ADD PUSH1 0x20 SWAP1 DIV DUP2 ADD SWAP3 DUP3 PUSH3 0x11E JUMPI PUSH1 0x0 DUP6 SSTORE PUSH3 0x16A JUMP JUMPDEST DUP3 PUSH1 0x1F LT PUSH3 0x139 JUMPI DUP1 MLOAD PUSH1 0xFF NOT AND DUP4 DUP1 ADD OR DUP6 SSTORE PUSH3 0x16A JUMP JUMPDEST DUP3 DUP1 ADD PUSH1 0x1 ADD DUP6 SSTORE DUP3 ISZERO PUSH3 0x16A JUMPI SWAP2 DUP3 ADD JUMPDEST DUP3 DUP2 GT ISZERO PUSH3 0x169 JUMPI DUP3 MLOAD DUP3 SSTORE SWAP2 PUSH1 0x20 ADD SWAP2 SWAP1 PUSH1 0x1 ADD SWAP1 PUSH3 0x14C JUMP JUMPDEST JUMPDEST POP SWAP1 POP PUSH3 0x179 SWAP2 SWAP1 PUSH3 0x17D JUMP JUMPDEST POP SWAP1 JUMP JUMPDEST JUMPDEST DUP1 DUP3 GT ISZERO PUSH3 0x198 JUMPI PUSH1 0x0 DUP2 PUSH1 0x0 SWAP1 SSTORE POP PUSH1 0x1 ADD PUSH3 0x17E JUMP JUMPDEST POP SWAP1 JUMP JUMPDEST PUSH1 0x0 PUSH1 0x40 MLOAD SWAP1 POP SWAP1 JUMP JUMPDEST PUSH1 0x0 DUP1 REVERT JUMPDEST PUSH1 0x0 DUP1 REVERT JUMPDEST PUSH1 0x0 DUP1 REVERT JUMPDEST PUSH1 0x0 DUP1 REVERT JUMPDEST PUSH1 0x0 PUSH1 0x1F NOT PUSH1 0x1F DUP4 ADD AND SWAP1 POP SWAP2 SWAP1 POP JUMP JUMPDEST PUSH32 0x4E487B7100000000000000000000000000000000000000000000000000000000 PUSH1 0x0 MSTORE PUSH1 0x41 PUSH1 0x4 MSTORE PUSH1 0x24 PUSH1 0x0 REVERT JUMPDEST PUSH3 0x205 DUP3 PUSH3 0x1BA JUMP JUMPDEST DUP2 ADD DUP2 DUP2 LT PUSH8 0xFFFFFFFFFFFFFFFF DUP3 GT OR ISZERO PUSH3 0x227 JUMPI PUSH3 0x226 PUSH3 0x1CB JUMP JUMPDEST JUMPDEST DUP1 PUSH1 0x40 MSTORE POP POP POP JUMP JUMPDEST PUSH1 0x0 PUSH3 0x23C PUSH3 0x19C JUMP JUMPDEST SWAP1 POP PUSH3 0x24A DUP3 DUP3 PUSH3 0x1FA JUMP JUMPDEST SWAP2 SWAP1 POP JUMP JUMPDEST PUSH1 0x0 PUSH8 0xFFFFFFFFFFFFFFFF DUP3 GT ISZERO PUSH3 0x26D JUMPI PUSH3 0x26C PUSH3 0x1CB JUMP JUMPDEST JUMPDEST PUSH3 0x278 DUP3 PUSH3 0x1BA JUMP JUMPDEST SWAP1 POP PUSH1 0x20 DUP2 ADD SWAP1 POP SWAP2 SWAP1 POP JUMP JUMPDEST PUSH1 0x0 JUMPDEST DUP4 DUP2 LT ISZERO PUSH3 0x2A5 JUMPI DUP1 DUP3 ADD MLOAD DUP2 DUP5 ADD MSTORE PUSH1 0x20 DUP2 ADD SWAP1 POP PUSH3 0x288 JUMP JUMPDEST DUP4 DUP2 GT ISZERO PUSH3 0x2B5 JUMPI PUSH1 0x0 DUP5 DUP5 ADD MSTORE JUMPDEST POP POP POP POP JUMP JUMPDEST PUSH1 0x0 PUSH3 0x2D2 PUSH3 0x2CC DUP5 PUSH3 0x24F JUMP JUMPDEST PUSH3 0x230 JUMP JUMPDEST SWAP1 POP DUP3 DUP2 MSTORE PUSH1 0x20 DUP2 ADD DUP5 DUP5 DUP5 ADD GT ISZERO PUSH3 0x2F1 JUMPI PUSH3 0x2F0 PUSH3 0x1B5 JUMP JUMPDEST JUMPDEST PUSH3 0x2FE DUP5 DUP3 DUP6 PUSH3 0x285 JUMP JUMPDEST POP SWAP4 SWAP3 POP POP POP JUMP JUMPDEST PUSH1 0x0 DUP3 PUSH1 0x1F DUP4 ADD SLT PUSH3 0x31E JUMPI PUSH3 0x31D PUSH3 0x1B0 JUMP JUMPDEST JUMPDEST DUP2 MLOAD PUSH3 0x330 DUP5 DUP3 PUSH1 0x20 DUP7 ADD PUSH3 0x2BB JUMP JUMPDEST SWAP2 POP POP SWAP3 SWAP2 POP POP JUMP JUMPDEST PUSH1 0x0 DUP2 SWAP1 POP SWAP2 SWAP1 POP JUMP JUMPDEST PUSH3 0x34E DUP2 PUSH3 0x339 JUMP JUMPDEST DUP2 EQ PUSH3 0x35A JUMPI PUSH1 0x0 DUP1 REVERT JUMPDEST POP JUMP JUMPDEST PUSH1 0x0 DUP2 MLOAD SWAP1 POP PUSH3 0x36E DUP2 PUSH3 0x343 JUMP JUMPDEST SWAP3 SWAP2 POP POP JUMP JUMPDEST PUSH1 0x0 DUP1 PUSH1 0x0 DUP1 PUSH1 0x0 DUP1 PUSH1 0x0 PUSH1 0xE0 DUP9 DUP11 SUB SLT ISZERO PUSH3 0x396 JUMPI PUSH3 0x395 PUSH3 0x1A6 JUMP JUMPDEST JUMPDEST PUSH1 0x0 DUP9 ADD MLOAD PUSH8 0xFFFFFFFFFFFFFFFF DUP2 GT ISZERO PUSH3 0x3B7 JUMPI PUSH3 0x3B6 PUSH3 0x1AB JUMP JUMPDEST JUMPDEST PUSH3 0x3C5 DUP11 DUP3 DUP12 ADD PUSH3 0x306 JUMP JUMPDEST SWAP8 POP POP PUSH1 0x20 DUP9 ADD MLOAD PUSH8 0xFFFFFFFFFFFFFFFF DUP2 GT ISZERO PUSH3 0x3E9 JUMPI PUSH3 0x3E8 PUSH3 0x1AB JUMP JUMPDEST JUMPDEST PUSH3 0x3F7 DUP11 DUP3 DUP12 ADD PUSH3 0x306 JUMP JUMPDEST SWAP7 POP POP PUSH1 0x40 PUSH3 0x40A DUP11 DUP3 DUP12 ADD PUSH3 0x35D JUMP JUMPDEST SWAP6 POP POP PUSH1 0x60 PUSH3 0x41D DUP11 DUP3 DUP12 ADD PUSH3 0x35D JUMP JUMPDEST SWAP5 POP POP PUSH1 0x80 PUSH3 0x430 DUP11 DUP3 DUP12 ADD PUSH3 0x35D JUMP JUMPDEST SWAP4 POP POP PUSH1 0xA0 PUSH3 0x443 DUP11 DUP3 DUP12 ADD PUSH3 0x35D JUMP JUMPDEST SWAP3 POP POP PUSH1 0xC0 PUSH3 0x456 DUP11 DUP3 DUP12 ADD PUSH3 0x35D JUMP JUMPDEST SWAP2 POP POP SWAP3 SWAP6 SWAP9 SWAP2 SWAP5 SWAP8 POP SWAP3 SWAP6 POP JUMP JUMPDEST PUSH32 0x4E487B7100000000000000000000000000000000000000000000000000000000 PUSH1 0x0 MSTORE PUSH1 0x22 PUSH1 0x4 MSTORE PUSH1 0x24 PUSH1 0x0 REVERT JUMPDEST PUSH1 0x0 PUSH1 0x2 DUP3 DIV SWAP1 POP PUSH1 0x1 DUP3 AND DUP1 PUSH3 0x4AD JUMPI PUSH1 0x7F DUP3 AND SWAP2 POP JUMPDEST PUSH1 0x20 DUP3 LT DUP2 SUB PUSH3 0x4C3 JUMPI PUSH3 0x4C2 PUSH3 0x465 JUMP JUMPDEST JUMPDEST POP SWAP2 SWAP1 POP JUMP JUMPDEST PUSH1 0x80 MLOAD PUSH1 0xA0 MLOAD PUSH1 0xC0 MLOAD PUSH1 0xE0 MLOAD PUSH2 0x100 MLOAD PUSH2 0xFED PUSH3 0x508 PUSH1 0x0 CODECOPY PUSH1 0x0 PUSH2 0x6AD ADD MSTORE PUSH1 0x0 PUSH2 0x5BB ADD MSTORE PUSH1 0x0 POP POP PUSH1 0x0 PUSH2 0x57A ADD MSTORE PUSH1 0x0 POP POP PUSH2 0xFED PUSH1 0x0 RETURN INVALID PUSH1 0x80 PUSH1 0x40 MSTORE PUSH1 0x4 CALLDATASIZE LT PUSH2 0x7B JUMPI PUSH1 0x0 CALLDATALOAD PUSH1 0xE0 SHR DUP1 PUSH4 0x7B61C320 GT PUSH2 0x4E JUMPI DUP1 PUSH4 0x7B61C320 EQ PUSH2 0x12A JUMPI DUP1 PUSH4 0xA4821719 EQ PUSH2 0x155 JUMPI DUP1 PUSH4 0xCB282253 EQ PUSH2 0x15F JUMPI DUP1 PUSH4 0xEA933B9D EQ PUSH2 0x18A JUMPI PUSH2 0x7B JUMP JUMPDEST DUP1 PUSH4 0x255C3792 EQ PUSH2 0x80 JUMPI DUP1 PUSH4 0x4A4C560D EQ PUSH2 0xAB JUMPI DUP1 PUSH4 0x51999B5C EQ PUSH2 0xD4 JUMPI DUP1 PUSH4 0x6C02A931 EQ PUSH2 0xFF JUMPI JUMPDEST PUSH1 0x0 DUP1 REVERT JUMPDEST CALLVALUE DUP1 ISZERO PUSH2 0x8C JUMPI PUSH1 0x0 DUP1 REVERT JUMPDEST POP PUSH2 0x95 PUSH2 0x1B5 JUMP JUMPDEST PUSH1 0x40 MLOAD PUSH2 0xA2 SWAP2 SWAP1 PUSH2 0x8F1 JUMP JUMPDEST PUSH1 0x40 MLOAD DUP1 SWAP2 SUB SWAP1 RETURN JUMPDEST CALLVALUE DUP1 ISZERO PUSH2 0xB7 JUMPI PUSH1 0x0 DUP1 REVERT JUMPDEST POP PUSH2 0xD2 PUSH1 0x4 DUP1 CALLDATASIZE SUB DUP2 ADD SWAP1 PUSH2 0xCD SWAP2 SWAP1 PUSH2 0x96F JUMP JUMPDEST PUSH2 0x209 JUMP JUMPDEST STOP JUMPDEST CALLVALUE DUP1 ISZERO PUSH2 0xE0 JUMPI PUSH1 0x0 DUP1 REVERT JUMPDEST POP PUSH2 0xE9 PUSH2 0x381 JUMP JUMPDEST PUSH1 0x40 MLOAD PUSH2 0xF6 SWAP2 SWAP1 PUSH2 0x9B5 JUMP JUMPDEST PUSH1 0x40 MLOAD DUP1 SWAP2 SUB SWAP1 RETURN JUMPDEST CALLVALUE DUP1 ISZERO PUSH2 0x10B JUMPI PUSH1 0x0 DUP1 REVERT JUMPDEST POP PUSH2 0x114 PUSH2 0x38A JUMP JUMPDEST PUSH1 0x40 MLOAD PUSH2 0x121 SWAP2 SWAP1 PUSH2 0xA69 JUMP JUMPDEST PUSH1 0x40 MLOAD DUP1 SWAP2 SUB SWAP1 RETURN JUMPDEST CALLVALUE DUP1 ISZERO PUSH2 0x136 JUMPI PUSH1 0x0 DUP1 REVERT JUMPDEST POP PUSH2 0x13F PUSH2 0x418 JUMP JUMPDEST PUSH1 0x40 MLOAD PUSH2 0x14C SWAP2 SWAP1 PUSH2 0xA69 JUMP JUMPDEST PUSH1 0x40 MLOAD DUP1 SWAP2 SUB SWAP1 RETURN JUMPDEST PUSH2 0x15D PUSH2 0x4A6 JUMP JUMPDEST STOP JUMPDEST CALLVALUE DUP1 ISZERO PUSH2 0x16B JUMPI PUSH1 0x0 DUP1 REVERT JUMPDEST POP PUSH2 0x174 PUSH2 0x887 JUMP JUMPDEST PUSH1 0x40 MLOAD PUSH2 0x181 SWAP2 SWAP1 PUSH2 0x9B5 JUMP JUMPDEST PUSH1 0x40 MLOAD DUP1 SWAP2 SUB SWAP1 RETURN JUMPDEST CALLVALUE DUP1 ISZERO PUSH2 0x196 JUMPI PUSH1 0x0 DUP1 REVERT JUMPDEST POP PUSH2 0x19F PUSH2 0x88F JUMP JUMPDEST PUSH1 0x40 MLOAD PUSH2 0x1AC SWAP2 SWAP1 PUSH2 0x9B5 JUMP JUMPDEST PUSH1 0x40 MLOAD DUP1 SWAP2 SUB SWAP1 RETURN JUMPDEST PUSH1 0x0 PUSH1 0x5 PUSH1 0x0 CALLER PUSH20 0xFFFFFFFFFFFFFFFFFFFFFFFFFFFFFFFFFFFFFFFF AND PUSH20 0xFFFFFFFFFFFFFFFFFFFFFFFFFFFFFFFFFFFFFFFF AND DUP2 MSTORE PUSH1 0x20 ADD SWAP1 DUP2 MSTORE PUSH1 0x20 ADD PUSH1 0x0 KECCAK256 PUSH1 0x0 SWAP1 SLOAD SWAP1 PUSH2 0x100 EXP SWAP1 DIV PUSH1 0xFF AND SWAP1 POP SWAP1 JUMP JUMPDEST PUSH1 0x3 PUSH1 0x0 SWAP1 SLOAD SWAP1 PUSH2 0x100 EXP SWAP1 DIV PUSH20 0xFFFFFFFFFFFFFFFFFFFFFFFFFFFFFFFFFFFFFFFF AND PUSH20 0xFFFFFFFFFFFFFFFFFFFFFFFFFFFFFFFFFFFFFFFF AND CALLER PUSH20 0xFFFFFFFFFFFFFFFFFFFFFFFFFFFFFFFFFFFFFFFF AND EQ PUSH2 0x299 JUMPI PUSH1 0x40 MLOAD PUSH32 0x8C379A000000000000000000000000000000000000000000000000000000000 DUP2 MSTORE PUSH1 0x4 ADD PUSH2 0x290 SWAP1 PUSH2 0xAD7 JUMP JUMPDEST PUSH1 0x40 MLOAD DUP1 SWAP2 SUB SWAP1 REVERT JUMPDEST PUSH1 0x5 PUSH1 0x0 DUP3 PUSH20 0xFFFFFFFFFFFFFFFFFFFFFFFFFFFFFFFFFFFFFFFF AND PUSH20 0xFFFFFFFFFFFFFFFFFFFFFFFFFFFFFFFFFFFFFFFF AND DUP2 MSTORE PUSH1 0x20 ADD SWAP1 DUP2 MSTORE PUSH1 0x20 ADD PUSH1 0x0 KECCAK256 PUSH1 0x0 SWAP1 SLOAD SWAP1 PUSH2 0x100 EXP SWAP1 DIV PUSH1 0xFF AND ISZERO PUSH2 0x326 JUMPI PUSH1 0x40 MLOAD PUSH32 0x8C379A000000000000000000000000000000000000000000000000000000000 DUP2 MSTORE PUSH1 0x4 ADD PUSH2 0x31D SWAP1 PUSH2 0xB43 JUMP JUMPDEST PUSH1 0x40 MLOAD DUP1 SWAP2 SUB SWAP1 REVERT JUMPDEST PUSH1 0x1 PUSH1 0x5 PUSH1 0x0 DUP4 PUSH20 0xFFFFFFFFFFFFFFFFFFFFFFFFFFFFFFFFFFFFFFFF AND PUSH20 0xFFFFFFFFFFFFFFFFFFFFFFFFFFFFFFFFFFFFFFFF AND DUP2 MSTORE PUSH1 0x20 ADD SWAP1 DUP2 MSTORE PUSH1 0x20 ADD PUSH1 0x0 KECCAK256 PUSH1 0x0 PUSH2 0x100 EXP DUP2 SLOAD DUP2 PUSH1 0xFF MUL NOT AND SWAP1 DUP4 ISZERO ISZERO MUL OR SWAP1 SSTORE POP POP JUMP JUMPDEST PUSH1 0x0 DUP1 SLOAD SWAP1 POP SWAP1 JUMP JUMPDEST PUSH1 0x1 DUP1 SLOAD PUSH2 0x397 SWAP1 PUSH2 0xB92 JUMP JUMPDEST DUP1 PUSH1 0x1F ADD PUSH1 0x20 DUP1 SWAP2 DIV MUL PUSH1 0x20 ADD PUSH1 0x40 MLOAD SWAP1 DUP2 ADD PUSH1 0x40 MSTORE DUP1 SWAP3 SWAP2 SWAP1 DUP2 DUP2 MSTORE PUSH1 0x20 ADD DUP3 DUP1 SLOAD PUSH2 0x3C3 SWAP1 PUSH2 0xB92 JUMP JUMPDEST DUP1 ISZERO PUSH2 0x410 JUMPI DUP1 PUSH1 0x1F LT PUSH2 0x3E5 JUMPI PUSH2 0x100 DUP1 DUP4 SLOAD DIV MUL DUP4 MSTORE SWAP2 PUSH1 0x20 ADD SWAP2 PUSH2 0x410 JUMP JUMPDEST DUP3 ADD SWAP2 SWAP1 PUSH1 0x0 MSTORE PUSH1 0x20 PUSH1 0x0 KECCAK256 SWAP1 JUMPDEST DUP2 SLOAD DUP2 MSTORE SWAP1 PUSH1 0x1 ADD SWAP1 PUSH1 0x20 ADD DUP1 DUP4 GT PUSH2 0x3F3 JUMPI DUP3 SWAP1 SUB PUSH1 0x1F AND DUP3 ADD SWAP2 JUMPDEST POP POP POP POP POP DUP2 JUMP JUMPDEST PUSH1 0x2 DUP1 SLOAD PUSH2 0x425 SWAP1 PUSH2 0xB92 JUMP JUMPDEST DUP1 PUSH1 0x1F ADD PUSH1 0x20 DUP1 SWAP2 DIV MUL PUSH1 0x20 ADD PUSH1 0x40 MLOAD SWAP1 DUP2 ADD PUSH1 0x40 MSTORE DUP1 SWAP3 SWAP2 SWAP1 DUP2 DUP2 MSTORE PUSH1 0x20 ADD DUP3 DUP1 SLOAD PUSH2 0x451 SWAP1 PUSH2 0xB92 JUMP JUMPDEST DUP1 ISZERO PUSH2 0x49E JUMPI DUP1 PUSH1 0x1F LT PUSH2 0x473 JUMPI PUSH2 0x100 DUP1 DUP4 SLOAD DIV MUL DUP4 MSTORE SWAP2 PUSH1 0x20 ADD SWAP2 PUSH2 0x49E JUMP JUMPDEST DUP3 ADD SWAP2 SWAP1 PUSH1 0x0 MSTORE PUSH1 0x20 PUSH1 0x0 KECCAK256 SWAP1 JUMPDEST DUP2 SLOAD DUP2 MSTORE SWAP1 PUSH1 0x1 ADD SWAP1 PUSH1 0x20 ADD DUP1 DUP4 GT PUSH2 0x481 JUMPI DUP3 SWAP1 SUB PUSH1 0x1F AND DUP3 ADD SWAP2 JUMPDEST POP POP POP POP POP DUP2 JUMP JUMPDEST PUSH1 0x5 PUSH1 0x0 CALLER PUSH20 0xFFFFFFFFFFFFFFFFFFFFFFFFFFFFFFFFFFFFFFFF AND PUSH20 0xFFFFFFFFFFFFFFFFFFFFFFFFFFFFFFFFFFFFFFFF AND DUP2 MSTORE PUSH1 0x20 ADD SWAP1 DUP2 MSTORE PUSH1 0x20 ADD PUSH1 0x0 KECCAK256 PUSH1 0x0 SWAP1 SLOAD SWAP1 PUSH2 0x100 EXP SWAP1 DIV PUSH1 0xFF AND PUSH2 0x532 JUMPI PUSH1 0x40 MLOAD PUSH32 0x8C379A000000000000000000000000000000000000000000000000000000000 DUP2 MSTORE PUSH1 0x4 ADD PUSH2 0x529 SWAP1 PUSH2 0xC0F JUMP JUMPDEST PUSH1 0x40 MLOAD DUP1 SWAP2 SUB SWAP1 REVERT JUMPDEST PUSH1 0x0 DUP1 SLOAD GT PUSH2 0x576 JUMPI PUSH1 0x40 MLOAD PUSH32 0x8C379A000000000000000000000000000000000000000000000000000000000 DUP2 MSTORE PUSH1 0x4 ADD PUSH2 0x56D SWAP1 PUSH2 0xCA1 JUMP JUMPDEST PUSH1 0x40 MLOAD DUP1 SWAP2 SUB SWAP1 REVERT JUMPDEST PUSH1 0x0 PUSH32 0x0 PUSH8 0xDE0B6B3A7640000 CALLVALUE PUSH2 0x5AD SWAP2 SWAP1 PUSH2 0xD1F JUMP JUMPDEST PUSH2 0x5B7 SWAP2 SWAP1 PUSH2 0xD50 JUMP JUMPDEST SWAP1 POP PUSH32 0x0 DUP2 LT ISZERO PUSH1 0x40 MLOAD DUP1 PUSH1 0x40 ADD PUSH1 0x40 MSTORE DUP1 PUSH1 0x11 DUP2 MSTORE PUSH1 0x20 ADD PUSH32 0x596F752068617665206272656163686564000000000000000000000000000000 DUP2 MSTORE POP PUSH1 0x40 MLOAD DUP1 PUSH1 0x40 ADD PUSH1 0x40 MSTORE DUP1 PUSH1 0x19 DUP2 MSTORE PUSH1 0x20 ADD PUSH32 0x204D696E20546F6B656E205075726368617365206C696D697400000000000000 DUP2 MSTORE POP PUSH1 0x40 MLOAD PUSH1 0x20 ADD PUSH2 0x65A SWAP3 SWAP2 SWAP1 PUSH2 0xDF1 JUMP JUMPDEST PUSH1 0x40 MLOAD PUSH1 0x20 DUP2 DUP4 SUB SUB DUP2 MSTORE SWAP1 PUSH1 0x40 MSTORE SWAP1 PUSH2 0x6AA JUMPI PUSH1 0x40 MLOAD PUSH32 0x8C379A000000000000000000000000000000000000000000000000000000000 DUP2 MSTORE PUSH1 0x4 ADD PUSH2 0x6A1 SWAP2 SWAP1 PUSH2 0xA69 JUMP JUMPDEST PUSH1 0x40 MLOAD DUP1 SWAP2 SUB SWAP1 REVERT JUMPDEST POP PUSH32 0x0 DUP2 GT ISZERO PUSH1 0x40 MLOAD PUSH1 0x20 ADD PUSH2 0x6DE SWAP1 PUSH2 0xE61 JUMP JUMPDEST PUSH1 0x40 MLOAD PUSH1 0x20 DUP2 DUP4 SUB SUB DUP2 MSTORE SWAP1 PUSH1 0x40 MSTORE SWAP1 PUSH2 0x72E JUMPI PUSH1 0x40 MLOAD PUSH32 0x8C379A000000000000000000000000000000000000000000000000000000000 DUP2 MSTORE PUSH1 0x4 ADD PUSH2 0x725 SWAP2 SWAP1 PUSH2 0xA69 JUMP JUMPDEST PUSH1 0x40 MLOAD DUP1 SWAP2 SUB SWAP1 REVERT JUMPDEST POP DUP1 PUSH1 0x0 SLOAD LT ISZERO PUSH2 0x774 JUMPI PUSH1 0x40 MLOAD PUSH32 0x8C379A000000000000000000000000000000000000000000000000000000000 DUP2 MSTORE PUSH1 0x4 ADD PUSH2 0x76B SWAP1 PUSH2 0xED5 JUMP JUMPDEST PUSH1 0x40 MLOAD DUP1 SWAP2 SUB SWAP1 REVERT JUMPDEST DUP1 PUSH1 0x4 PUSH1 0x0 CALLER PUSH20 0xFFFFFFFFFFFFFFFFFFFFFFFFFFFFFFFFFFFFFFFF AND PUSH20 0xFFFFFFFFFFFFFFFFFFFFFFFFFFFFFFFFFFFFFFFF AND DUP2 MSTORE PUSH1 0x20 ADD SWAP1 DUP2 MSTORE PUSH1 0x20 ADD PUSH1 0x0 KECCAK256 PUSH1 0x0 DUP3 DUP3 SLOAD PUSH2 0x7C3 SWAP2 SWAP1 PUSH2 0xEF5 JUMP JUMPDEST SWAP3 POP POP DUP2 SWAP1 SSTORE POP DUP1 PUSH1 0x0 DUP1 DUP3 DUP3 SLOAD PUSH2 0x7DB SWAP2 SWAP1 PUSH2 0xF4B JUMP JUMPDEST SWAP3 POP POP DUP2 SWAP1 SSTORE POP PUSH1 0x3 PUSH1 0x0 SWAP1 SLOAD SWAP1 PUSH2 0x100 EXP SWAP1 DIV PUSH20 0xFFFFFFFFFFFFFFFFFFFFFFFFFFFFFFFFFFFFFFFF AND PUSH20 0xFFFFFFFFFFFFFFFFFFFFFFFFFFFFFFFFFFFFFFFF AND PUSH2 0x8FC CALLVALUE SWAP1 DUP2 ISZERO MUL SWAP1 PUSH1 0x40 MLOAD PUSH1 0x0 PUSH1 0x40 MLOAD DUP1 DUP4 SUB DUP2 DUP6 DUP9 DUP9 CALL SWAP4 POP POP POP POP ISZERO DUP1 ISZERO PUSH2 0x84A JUMPI RETURNDATASIZE PUSH1 0x0 DUP1 RETURNDATACOPY RETURNDATASIZE PUSH1 0x0 REVERT JUMPDEST POP PUSH32 0xA512FB2532CA8587F236380171326EBB69670E86A2BA0C4412A3FCCA4C3ADA9B CALLER DUP3 PUSH1 0x40 MLOAD PUSH2 0x87C SWAP3 SWAP2 SWAP1 PUSH2 0xF8E JUMP JUMPDEST PUSH1 0x40 MLOAD DUP1 SWAP2 SUB SWAP1 LOG1 POP JUMP JUMPDEST PUSH1 0x0 SELFBALANCE SWAP1 POP SWAP1 JUMP JUMPDEST PUSH1 0x0 PUSH1 0x4 PUSH1 0x0 ORIGIN PUSH20 0xFFFFFFFFFFFFFFFFFFFFFFFFFFFFFFFFFFFFFFFF AND PUSH20 0xFFFFFFFFFFFFFFFFFFFFFFFFFFFFFFFFFFFFFFFF AND DUP2 MSTORE PUSH1 0x20 ADD SWAP1 DUP2 MSTORE PUSH1 0x20 ADD PUSH1 0x0 KECCAK256 SLOAD SWAP1 POP SWAP1 JUMP JUMPDEST PUSH1 0x0 DUP2 ISZERO ISZERO SWAP1 POP SWAP2 SWAP1 POP JUMP JUMPDEST PUSH2 0x8EB DUP2 PUSH2 0x8D6 JUMP JUMPDEST DUP3 MSTORE POP POP JUMP JUMPDEST PUSH1 0x0 PUSH1 0x20 DUP3 ADD SWAP1 POP PUSH2 0x906 PUSH1 0x0 DUP4 ADD DUP5 PUSH2 0x8E2 JUMP JUMPDEST SWAP3 SWAP2 POP POP JUMP JUMPDEST PUSH1 0x0 DUP1 REVERT JUMPDEST PUSH1 0x0 PUSH20 0xFFFFFFFFFFFFFFFFFFFFFFFFFFFFFFFFFFFFFFFF DUP3 AND SWAP1 POP SWAP2 SWAP1 POP JUMP JUMPDEST PUSH1 0x0 PUSH2 0x93C DUP3 PUSH2 0x911 JUMP JUMPDEST SWAP1 POP SWAP2 SWAP1 POP JUMP JUMPDEST PUSH2 0x94C DUP2 PUSH2 0x931 JUMP JUMPDEST DUP2 EQ PUSH2 0x957 JUMPI PUSH1 0x0 DUP1 REVERT JUMPDEST POP JUMP JUMPDEST PUSH1 0x0 DUP2 CALLDATALOAD SWAP1 POP PUSH2 0x969 DUP2 PUSH2 0x943 JUMP JUMPDEST SWAP3 SWAP2 POP POP JUMP JUMPDEST PUSH1 0x0 PUSH1 0x20 DUP3 DUP5 SUB SLT ISZERO PUSH2 0x985 JUMPI PUSH2 0x984 PUSH2 0x90C JUMP JUMPDEST JUMPDEST PUSH1 0x0 PUSH2 0x993 DUP5 DUP3 DUP6 ADD PUSH2 0x95A JUMP JUMPDEST SWAP2 POP POP SWAP3 SWAP2 POP POP JUMP JUMPDEST PUSH1 0x0 DUP2 SWAP1 POP SWAP2 SWAP1 POP JUMP JUMPDEST PUSH2 0x9AF DUP2 PUSH2 0x99C JUMP JUMPDEST DUP3 MSTORE POP POP JUMP JUMPDEST PUSH1 0x0 PUSH1 0x20 DUP3 ADD SWAP1 POP PUSH2 0x9CA PUSH1 0x0 DUP4 ADD DUP5 PUSH2 0x9A6 JUMP JUMPDEST SWAP3 SWAP2 POP POP JUMP JUMPDEST PUSH1 0x0 DUP2 MLOAD SWAP1 POP SWAP2 SWAP1 POP JUMP JUMPDEST PUSH1 0x0 DUP3 DUP3 MSTORE PUSH1 0x20 DUP3 ADD SWAP1 POP SWAP3 SWAP2 POP POP JUMP JUMPDEST PUSH1 0x0 JUMPDEST DUP4 DUP2 LT ISZERO PUSH2 0xA0A JUMPI DUP1 DUP3 ADD MLOAD DUP2 DUP5 ADD MSTORE PUSH1 0x20 DUP2 ADD SWAP1 POP PUSH2 0x9EF JUMP JUMPDEST DUP4 DUP2 GT ISZERO PUSH2 0xA19 JUMPI PUSH1 0x0 DUP5 DUP5 ADD MSTORE JUMPDEST POP POP POP POP JUMP JUMPDEST PUSH1 0x0 PUSH1 0x1F NOT PUSH1 0x1F DUP4 ADD AND SWAP1 POP SWAP2 SWAP1 POP JUMP JUMPDEST PUSH1 0x0 PUSH2 0xA3B DUP3 PUSH2 0x9D0 JUMP JUMPDEST PUSH2 0xA45 DUP2 DUP6 PUSH2 0x9DB JUMP JUMPDEST SWAP4 POP PUSH2 0xA55 DUP2 DUP6 PUSH1 0x20 DUP7 ADD PUSH2 0x9EC JUMP JUMPDEST PUSH2 0xA5E DUP2 PUSH2 0xA1F JUMP JUMPDEST DUP5 ADD SWAP2 POP POP SWAP3 SWAP2 POP POP JUMP JUMPDEST PUSH1 0x0 PUSH1 0x20 DUP3 ADD SWAP1 POP DUP2 DUP2 SUB PUSH1 0x0 DUP4 ADD MSTORE PUSH2 0xA83 DUP2 DUP5 PUSH2 0xA30 JUMP JUMPDEST SWAP1 POP SWAP3 SWAP2 POP POP JUMP JUMPDEST PUSH32 0x4F6E6C79206F776E65722063616E206163636573732074686973000000000000 PUSH1 0x0 DUP3 ADD MSTORE POP JUMP JUMPDEST PUSH1 0x0 PUSH2 0xAC1 PUSH1 0x1A DUP4 PUSH2 0x9DB JUMP JUMPDEST SWAP2 POP PUSH2 0xACC DUP3 PUSH2 0xA8B JUMP JUMPDEST PUSH1 0x20 DUP3 ADD SWAP1 POP SWAP2 SWAP1 POP JUMP JUMPDEST PUSH1 0x0 PUSH1 0x20 DUP3 ADD SWAP1 POP DUP2 DUP2 SUB PUSH1 0x0 DUP4 ADD MSTORE PUSH2 0xAF0 DUP2 PUSH2 0xAB4 JUMP JUMPDEST SWAP1 POP SWAP2 SWAP1 POP JUMP JUMPDEST PUSH32 0x4164647265737320697320616C72656164792077686974656C69737465642121 PUSH1 0x0 DUP3 ADD MSTORE POP JUMP JUMPDEST PUSH1 0x0 PUSH2 0xB2D PUSH1 0x20 DUP4 PUSH2 0x9DB JUMP JUMPDEST SWAP2 POP PUSH2 0xB38 DUP3 PUSH2 0xAF7 JUMP JUMPDEST PUSH1 0x20 DUP3 ADD SWAP1 POP SWAP2 SWAP1 POP JUMP JUMPDEST PUSH1 0x0 PUSH1 0x20 DUP3 ADD SWAP1 POP DUP2 DUP2 SUB PUSH1 0x0 DUP4 ADD MSTORE PUSH2 0xB5C DUP2 PUSH2 0xB20 JUMP JUMPDEST SWAP1 POP SWAP2 SWAP1 POP JUMP JUMPDEST PUSH32 0x4E487B7100000000000000000000000000000000000000000000000000000000 PUSH1 0x0 MSTORE PUSH1 0x22 PUSH1 0x4 MSTORE PUSH1 0x24 PUSH1 0x0 REVERT JUMPDEST PUSH1 0x0 PUSH1 0x2 DUP3 DIV SWAP1 POP PUSH1 0x1 DUP3 AND DUP1 PUSH2 0xBAA JUMPI PUSH1 0x7F DUP3 AND SWAP2 POP JUMPDEST PUSH1 0x20 DUP3 LT DUP2 SUB PUSH2 0xBBD JUMPI PUSH2 0xBBC PUSH2 0xB63 JUMP JUMPDEST JUMPDEST POP SWAP2 SWAP1 POP JUMP JUMPDEST PUSH32 0x546869732061646472657373206973206E6F742077686974656C69737465642E PUSH1 0x0 DUP3 ADD MSTORE POP JUMP JUMPDEST PUSH1 0x0 PUSH2 0xBF9 PUSH1 0x20 DUP4 PUSH2 0x9DB JUMP JUMPDEST SWAP2 POP PUSH2 0xC04 DUP3 PUSH2 0xBC3 JUMP JUMPDEST PUSH1 0x20 DUP3 ADD SWAP1 POP SWAP2 SWAP1 POP JUMP JUMPDEST PUSH1 0x0 PUSH1 0x20 DUP3 ADD SWAP1 POP DUP2 DUP2 SUB PUSH1 0x0 DUP4 ADD MSTORE PUSH2 0xC28 DUP2 PUSH2 0xBEC JUMP JUMPDEST SWAP1 POP SWAP2 SWAP1 POP JUMP JUMPDEST PUSH32 0x546F6B656E2053616C65206973206F76657220617320616C6C20746F6B656E73 PUSH1 0x0 DUP3 ADD MSTORE PUSH32 0x2061726520736F6C640000000000000000000000000000000000000000000000 PUSH1 0x20 DUP3 ADD MSTORE POP JUMP JUMPDEST PUSH1 0x0 PUSH2 0xC8B PUSH1 0x29 DUP4 PUSH2 0x9DB JUMP JUMPDEST SWAP2 POP PUSH2 0xC96 DUP3 PUSH2 0xC2F JUMP JUMPDEST PUSH1 0x40 DUP3 ADD SWAP1 POP SWAP2 SWAP1 POP JUMP JUMPDEST PUSH1 0x0 PUSH1 0x20 DUP3 ADD SWAP1 POP DUP2 DUP2 SUB PUSH1 0x0 DUP4 ADD MSTORE PUSH2 0xCBA DUP2 PUSH2 0xC7E JUMP JUMPDEST SWAP1 POP SWAP2 SWAP1 POP JUMP JUMPDEST PUSH32 0x4E487B7100000000000000000000000000000000000000000000000000000000 PUSH1 0x0 MSTORE PUSH1 0x12 PUSH1 0x4 MSTORE PUSH1 0x24 PUSH1 0x0 REVERT JUMPDEST PUSH32 0x4E487B7100000000000000000000000000000000000000000000000000000000 PUSH1 0x0 MSTORE PUSH1 0x11 PUSH1 0x4 MSTORE PUSH1 0x24 PUSH1 0x0 REVERT JUMPDEST PUSH1 0x0 PUSH2 0xD2A DUP3 PUSH2 0x99C JUMP JUMPDEST SWAP2 POP PUSH2 0xD35 DUP4 PUSH2 0x99C JUMP JUMPDEST SWAP3 POP DUP3 PUSH2 0xD45 JUMPI PUSH2 0xD44 PUSH2 0xCC1 JUMP JUMPDEST JUMPDEST DUP3 DUP3 DIV SWAP1 POP SWAP3 SWAP2 POP POP JUMP JUMPDEST PUSH1 0x0 PUSH2 0xD5B DUP3 PUSH2 0x99C JUMP JUMPDEST SWAP2 POP PUSH2 0xD66 DUP4 PUSH2 0x99C JUMP JUMPDEST SWAP3 POP DUP2 PUSH32 0xFFFFFFFFFFFFFFFFFFFFFFFFFFFFFFFFFFFFFFFFFFFFFFFFFFFFFFFFFFFFFFFF DIV DUP4 GT DUP3 ISZERO ISZERO AND ISZERO PUSH2 0xD9F JUMPI PUSH2 0xD9E PUSH2 0xCF0 JUMP JUMPDEST JUMPDEST DUP3 DUP3 MUL SWAP1 POP SWAP3 SWAP2 POP POP JUMP JUMPDEST PUSH1 0x0 DUP2 MLOAD SWAP1 POP SWAP2 SWAP1 POP JUMP JUMPDEST PUSH1 0x0 DUP2 SWAP1 POP SWAP3 SWAP2 POP POP JUMP JUMPDEST PUSH1 0x0 PUSH2 0xDCB DUP3 PUSH2 0xDAA JUMP JUMPDEST PUSH2 0xDD5 DUP2 DUP6 PUSH2 0xDB5 JUMP JUMPDEST SWAP4 POP PUSH2 0xDE5 DUP2 DUP6 PUSH1 0x20 DUP7 ADD PUSH2 0x9EC JUMP JUMPDEST DUP1 DUP5 ADD SWAP2 POP POP SWAP3 SWAP2 POP POP JUMP JUMPDEST PUSH1 0x0 PUSH2 0xDFD DUP3 DUP6 PUSH2 0xDC0 JUMP JUMPDEST SWAP2 POP PUSH2 0xE09 DUP3 DUP5 PUSH2 0xDC0 JUMP JUMPDEST SWAP2 POP DUP2 SWAP1 POP SWAP4 SWAP3 POP POP POP JUMP JUMPDEST PUSH32 0x596F752068617665206272656163686564000000000000000000000000000000 DUP2 MSTORE POP JUMP JUMPDEST PUSH32 0x204D617820546F6B656E205075726368617365206C696D697400000000000000 DUP2 MSTORE POP JUMP JUMPDEST PUSH1 0x0 PUSH2 0xE6C DUP3 PUSH2 0xE15 JUMP JUMPDEST PUSH1 0x11 DUP3 ADD SWAP2 POP PUSH2 0xE7B DUP3 PUSH2 0xE3B JUMP JUMPDEST PUSH1 0x19 DUP3 ADD SWAP2 POP DUP2 SWAP1 POP SWAP2 SWAP1 POP JUMP JUMPDEST PUSH32 0x4E6F7420656E6F75676820746F6B656E20746F20707572636861736500000000 PUSH1 0x0 DUP3 ADD MSTORE POP JUMP JUMPDEST PUSH1 0x0 PUSH2 0xEBF PUSH1 0x1C DUP4 PUSH2 0x9DB JUMP JUMPDEST SWAP2 POP PUSH2 0xECA DUP3 PUSH2 0xE89 JUMP JUMPDEST PUSH1 0x20 DUP3 ADD SWAP1 POP SWAP2 SWAP1 POP JUMP JUMPDEST PUSH1 0x0 PUSH1 0x20 DUP3 ADD SWAP1 POP DUP2 DUP2 SUB PUSH1 0x0 DUP4 ADD MSTORE PUSH2 0xEEE DUP2 PUSH2 0xEB2 JUMP JUMPDEST SWAP1 POP SWAP2 SWAP1 POP JUMP JUMPDEST PUSH1 0x0 PUSH2 0xF00 DUP3 PUSH2 0x99C JUMP JUMPDEST SWAP2 POP PUSH2 0xF0B DUP4 PUSH2 0x99C JUMP JUMPDEST SWAP3 POP DUP3 PUSH32 0xFFFFFFFFFFFFFFFFFFFFFFFFFFFFFFFFFFFFFFFFFFFFFFFFFFFFFFFFFFFFFFFF SUB DUP3 GT ISZERO PUSH2 0xF40 JUMPI PUSH2 0xF3F PUSH2 0xCF0 JUMP JUMPDEST JUMPDEST DUP3 DUP3 ADD SWAP1 POP SWAP3 SWAP2 POP POP JUMP JUMPDEST PUSH1 0x0 PUSH2 0xF56 DUP3 PUSH2 0x99C JUMP JUMPDEST SWAP2 POP PUSH2 0xF61 DUP4 PUSH2 0x99C JUMP JUMPDEST SWAP3 POP DUP3 DUP3 LT ISZERO PUSH2 0xF74 JUMPI PUSH2 0xF73 PUSH2 0xCF0 JUMP JUMPDEST JUMPDEST DUP3 DUP3 SUB SWAP1 POP SWAP3 SWAP2 POP POP JUMP JUMPDEST PUSH2 0xF88 DUP2 PUSH2 0x931 JUMP JUMPDEST DUP3 MSTORE POP POP JUMP JUMPDEST PUSH1 0x0 PUSH1 0x40 DUP3 ADD SWAP1 POP PUSH2 0xFA3 PUSH1 0x0 DUP4 ADD DUP6 PUSH2 0xF7F JUMP JUMPDEST PUSH2 0xFB0 PUSH1 0x20 DUP4 ADD DUP5 PUSH2 0x9A6 JUMP JUMPDEST SWAP4 SWAP3 POP POP POP JUMP INVALID LOG2 PUSH5 0x6970667358 0x22 SLT KECCAK256 0xE2 0x5F ADD JUMPDEST 0xE3 0xD3 0x28 MULMOD GAS SWAP6 PUSH2 0x22A1 0x28 JUMP PUSH30 0x93DCA79217855E416B6149C1D53826DA64736F6C634300080E0033000000 "},"gasEstimates":{"creation":{"codeDepositCost":"815400","executionCost":"infinite","totalCost":"infinite"},"external":{"buyToken()":"infinite","checkWhitelistedAccount()":"2569","getTokenPurchasedCount()":"2592","getUnsoldTokenCount()":"2482","tokenName()":"infinite","tokenSymbol()":"infinite","totalEthContributed()":"383","whitelistUser(address)":"29251"}},"methodIdentifiers":{"buyToken()":"a4821719","checkWhitelistedAccount()":"255c3792","getTokenPurchasedCount()":"ea933b9d","getUnsoldTokenCount()":"51999b5c","tokenName()":"6c02a931","tokenSymbol()":"7b61c320","totalEthContributed()":"cb282253","whitelistUser(address)":"4a4c560d"}},"storageLayout":{"storage":[{"astId":4,"contract":"contractFile:MyICO","label":"unsoldTokens","offset":0,"slot":"0","type":"t_uint256"},{"astId":16,"contract":"contractFile:MyICO","label":"tokenName","offset":0,"slot":"1","type":"t_string_storage"},{"astId":18,"contract":"contractFile:MyICO","label":"tokenSymbol","offset":0,"slot":"2","type":"t_string_storage"},{"astId":20,"contract":"contractFile:MyICO","label":"wallet","offset":0,"slot":"3","type":"t_address_payable"},{"astId":24,"contract":"contractFile:MyICO","label":"balances","offset":0,"slot":"4","type":"t_mapping(t_address,t_uint256)"},{"astId":28,"contract":"contractFile:MyICO","label":"whitelist","offset":0,"slot":"5","type":"t_mapping(t_address,t_bool)"}],"types":{"t_address":{"encoding":"inplace","label":"address","numberOfBytes":"20"},"t_address_payable":{"encoding":"inplace","label":"address payable","numberOfBytes":"20"},"t_bool":{"encoding":"inplace","label":"bool","numberOfBytes":"1"},"t_mapping(t_address,t_bool)":{"encoding":"mapping","key":"t_address","label":"mapping(address => bool)","numberOfBytes":"32","value":"t_bool"},"t_mapping(t_address,t_uint256)":{"encoding":"mapping","key":"t_address","label":"mapping(address => uint256)","numberOfBytes":"32","value":"t_uint256"},"t_string_storage":{"encoding":"bytes","label":"string","numberOfBytes":"32"},"t_uint256":{"encoding":"inplace","label":"uint256","numberOfBytes":"32"}}},"userdoc":{"kind":"user","methods":{},"version":1}}